:100E240041542B434F4C503D310D0A004154443141
:100E3400353230303833313532373B0D0A004154C6
:100E44002B434C504F52543D22554450222C2233B4
:100E5400303333220D0A0041542B4349505354413B
:100E640052543D22554450222C223132352E3232F6
:100E7400312E3138322E3935222C22383038302276
:100E84000D0A0041542B43495053454E440D0A006A
:100E9400252E3266002C252E32660041542B434900
:100EA40050434C4F53450D0A0041542B4349505372
:100EB4004855540D0A0025322E32662C25322E3226
:100EC400663B0043757272656E742054656D70657F
:100ED4007261740043757272656E742048756D6931
:100EE400646974790043757272656E742044757315
:100EF400740041542B434D47463D300D0A00415484
:100F04002B434D47533D32370D0A003030313130D9
:100F1400303044393136383531303238303133328B
:100F2400354637303030384130304336323131365F
:100F34004236333537323835334431373745443424
:0B0F4400464531000D0A000000138834
:1016C40041000500410063004100501A44005A00E3
:1016D400000000041100000000040D000000006080
:1016E40028001168656C6C6F210000000000000088
:1016F40000000000000000000000000000000000E6
:0B1704000000000000000000000000DA
:0F1744008F807F017E00121753D2B47F057E0085
:10175300D3EF9400EE6480948040147D6E7C00EDA2
:0F1763001D70011CED4C70F7EF1F70E41E80E14C
:011772002254
:08183F00C2B5121744C2B42225
:08184700D2B5121744C2B4220D
:10000300C2A7C2A6C2B47F3812183F7F0C12183F92
:0F0013007F0612183F7F0112183F7F8002183FAF
:10177300758921758DFD758BFDD28EE4F58CF58A07
:10178300D29CC29FD29ED2AFD2ACFE7F20FD7B0102
:071793007A00796D02082DB8
:08184F008F993099FDC2992226
:0918360075991A3099FDC299223E
:0614F9007B017A00790678
:0B14FF0090008DEBF0A3EAF0A3E9F0F1
:10150A00C2AC121813900090EEF0A3EFF0E4FDFCC9
:10151A00D3900091E09DEC6480F8900090E06480A4
:10152A0098401D90008DE0FBA3E0FAA3E0F98D82BC
:10153A008C8312070FFF12184F0DBD00010C80D0CB
:10154A007F0A12184F7E007F207D0090008DE0FBFD
:0B155A00A3E0FAA3E0F912082DD2ACC8
:011565002263
:0300230002162B97
:10162B00C0E0C083C082C0D075D000C007309832F4
:10163B00C29890005EE599F0E0FFB40A04640D6077
:10164B0017900063E0246DF582E43400F583EFF02E
:10165B00900063E004F0800A900063E4F0900005D2
:0D166B0004F0D007D0D0D082D083D0E03280
:06185700900005E0FF22F5
:101566009000C9EBF0A3EAF0A3E9F0E4900005F0DF
:101576007B017A00796D121813900059EFF07B0108
:101586007A00796D1218139000C9E0FBA3E0FAA364
:10159600E0F8AC02AD037B017A00796D1206D07BD0
:1015A600017A00796D1218139000C9E0FBA3E0FAE6
:1015B600A3E0F98F828E83E412074E7E007F207DA2
:0A15C600007B017A00796D02082D08
:06185D00900059E0FF229B
:101678001200031217737B017A0079111218139064
:101688000059EFF0E4900063F0900059E0FF9000FB
:1016980063E0FEC39F501774112EF582E43400F501
:1016A80083E0FF121847900063E004F080DB120C1F
:0C16B800DC7B017A00793B1214FF80F209
:0417C1007FD07E0750
:1017C500D3EF9400EE6480948040147D6E7C00ED30
:0F17D5001D70011CED4C70F7EF1F70E41E80E1DA
:0117E40022E2
:101710007BFF7A0E79F61214FF1217C17BFF7A0F46
:1017200079021214FF7FB87E0B1217C57BFF7A0F68
:10173000790F1214FF1217C17B017A00795012142D
:04174000FF0217C1CC
:1017E5007BFF7A0E79241214FF1217C17BFF7A0E44
:0817F50079301214FF0217C144
:1011A3009000BD1207AA7BFF7A0E79421214FF1238
:1011B30017C17BFF7A0E795B1214FF1217C17BFFF5
:1011C3007A0E79871214FF1217C190009074FFF002
:1011D300A3740EF0A37494F09000BDE0FCA3E0FDB3
:1011E300A3E0FEA3E0FF9000931207AA7B017A001D
:1011F30079061208BE1214F990009074FFF0A374DC
:101203000EF0A37499F09000C1E0FCA3E0FDA3E00D
:10121300FEA3E0FF9000931207AA7B017A007906F0
:101223001208BE1214F990009074FFF0A3740EF02C
:10123300A37499F09000C5E0FCA3E0FDA3E0FEA336
:10124300E0FF9000931207AA7B017A007906120847
:10125300BE1214F9900050E0FF12184F1217C17B11
:10126300FF7A0E799F1214FF1217C17BFF7A0E7952
:07127300AD1214FF0217C1C8
:0D182800EFD3940040077E6EDEFE1F80F3BC
:011835002290
:1017FD0090008DE014F0E014F0E014F0E014F0E04F
:05180D0014F0E014F0EE
:0118120022B3
:1015D000E4FF90006C7402F020A20A90006CE0FE20
:1015E00004F0EE70F31217FD1217FD1217FDE490D0
:1015F0000004F030A20204F090006C7402F030A2FB
:101600000A90006CE0FE04F0EE70F390006CE06471
:10161000016017900058E0FE25E0FEF0900004E025
:0A1620004E900058F00FEFB408A838
:01162A00229D
:05127A0090008DEFF073
:10127F00E4A3F0A3F0A31207B600000000900094BF
:10128F007401F090008DE030E00A9000901207B6E4
:10129F003F80000090008EE4F0A304F0900094E0F3
:1012AF00FF25E0F0E0FF90008DE05FB50744900070
:1012BF0090E0F8A3E0F9A3E0FAA3E0FBC000C001BF
:1012CF00C002C00390008EE0FCA3E0FDEC1201C34E
:1012DF009000991207AA7F007E007D007C40120FBC
:1012EF004FD003D002D001D00012002D90009012E9
:1012FF0007AA90008FE004F0700690008EE004F0D3
:10130F00C390008FE0940890008EE064809480403A
:0F131F008B900090E0FCA3E0FDA3E0FEA3E0FFB5
:01132E00229C
:05132F0090008DEFF0BD
:10133400A31207B6000000009000937480F0E490BC
:101344000092F0900092E0FFC394045073A3E0FE77
:10135400A807088002C313D8FCFF90008DE05FD378
:1013640094004054A3E0F8A3E0F9A3E0FAA3E0FB5F
:10137400C000C001C002C003A3E02401FDE433FCAB
:10138400E41201C39000991207AA7F007E007D0039
:101394007C40120F4FA804A905AA06AB07E4FFFE80
:1013A4007D807C3F120121D003D002D001D00012F5
:1013B400002D90008E1207AA900092E004F0808322
:0E13C40090008EE0FCA3E0FDA3E0FEA3E0FF9E
:0113D20022F8
:100CDC00C2A27F227E00121828D2A21217FD121770
:100CEC00FD1217FD1217FDD2A230A203020E2390A3
:100CFC00006C7402F020A20A90006CE0FF04F0EF8C
:100D0C0070F390006C7402F030A20A90006CE0FF5B
:100D1C0004F0EF70F31215D0900058E0900056F0EC
:100D2C001215D0900058E0900057F01215D090009A
:100D3C0058E0900010F0F5901215D0900058E0900B
:100D4C00003AF01215D0900058E0FF900003F0FE2E
:100D5C00D2A290003AE0FD900010E0FC2DFF900034
:100D6C0056E0FB2FFAA3E0FF2A900004F06E60031C
:100D7C00020E23900039EBF090004FEFF090000141
:100D8C00ECF0A3EDF0A3E0900000F012132FC004E0
:100D9C00C005C006C007900056E0FF12127AD003BF
:100DAC00D002D001D00012002D9000681207AA903A
:100DBC00003AE0FF12132FC004C005C006C0079014
:100DCC000010E0FF12127AD003D002D001D0001232
:100DDC00002D9000521207AA90009074FFF0A3749B
:100DEC000EF0A374BAF0900052E0FCA3E0FDA3E077
:100DFC00FEA3E0FF9000931207AA900068E0FCA30A
:100E0C00E0FDA3E0FEA3E0FF9000971207AA7B0190
:080E1C007A00793B1208BE22A6
:10002600020231E86480F8E933E83360110460F0D5
:10003600ED33EC337009E8FCE9FDEAFEEBFF220440
:1000460060DED3EB9FEA9EE99DE8C2E78CF0C2F73B
:1000560095F0400CE8CCF8E9CDF9EACEFAEBCFFB07
:100066001201FC85D0F05804700320D5B3E8047063
:10007600075002B2D502023B92D5EC0460F7E4CCFD
:10008600C0E0C398F8603B94186008400DD0E0FBD0
:10009600020213E4FBFAC9FC8028E830E406E4C94E
:1000A600FBE4CAFCE830E305E4C9CACBFCE8540724
:1000B6006010F8C3E913F9EA13FAEB13FBEC13FC2F
:1000C600D8F130F52FC3E49CFCEF9BFFEE9AFEEDD2
:1000D60099FDD0E0FBEF4E4D4C701222DB0302027D
:1000E60038EC2CFCEF33FFEE33FEED33FDED30E75D
:1000F600EB020213EF2BFFEE3AFEED39FDD0E0FBEB
:1001060050130BBB000302023BED13FDEE13FEEF93
:0801160013FFEC13FC020213BD
:10011E0002023BEC5D046005E859047003020231F3
:10012E001201FC580460F6EC4860F2EC7004FDFE1F
:10013E00FF22C860DB2481C85009C39860025006B4
:10014E000202389850CAF582E9294B4A7005AB82F3
:10015E0002022775F0007C1A7880C3EF9BEE9AEDB1
:10016E0099400DC3EF9BFFEE9AFEED99FDE842F02C
:10017E00DC23ACF0D0E0FFD0E0FED0E0FDAB82207F
:10018E00E7101BEB60BAEC2CFCEF33FFEE33FEED09
:10019E0033FD020213E803F830E705C0F075F000F6
:1001AE00EF2FFFEE33FEED33FD40B830E7C280AAED
:1001BE0075F020800E75F010800575F0087D007EBC
:1001CE00007F003392D530D503120770EC33401008
:1001DE00EF33FFEE33FEED33FDEC33FCD5F0ED22C5
:0E01EE00E5F0247EA2D513CC92E7CDCEFF2201
:10085900E5082490F582E43400F583E00508229048
:10086900008D300703900090E475F0011207E7024C
:1008790006F62000E97F2ED2008018EF540F24904D
:10088900D43440D4FF30040BEF24BFB41A00500312
:100899002461FFE50960021509050CE50C700205E4
:1008A9000B30070E90008DE475F0011207E7EF0297
:1008B900073C02179A7403D2078003E4C207F508BC
:1008C90090008D1207FEE4F509F50BF50CE50960BA
:1008D900077F2012089C80F5750AFFC201C200C279
:1008E90002C203C205C206C208120868FF700D30B1
:1008F90007057F001208ADAF0CAE0B22B4255FC20D
:10090900D5C204120868FF24D0B40A00501A75F041
:100919000A780930D50508B6FF0106C6A426F620CF
:10092900D5047002D20380D924CFB41A00EF500441
:10093900C2E5D204020B9FD20180C6D20080C0D288
:100949000280BCD2D580BAD20580B47F2012089C1F
:100959002002077401B5090040F1120859FF120875
:100969009C0208D6D208D2068095120859FB1208B3
:1009790059FA120859F94A4B7006799D7A0C7BFF8E
:1009890020022EE509602A7E008E827583001207F7
:100999000F60060EEE650A70F0C2D5EBC0E0EAC042
:1009A900E0E9C0E0EE120C00D0E0F9D0E0FAD0E0C6
:1009B900FB1206F6FF60AAEBC0E0EAC0E0E9C0E07E
:1009C90012089CD0E02401F9D0E03400FAD0E0FB11
:1009D900E50A0460DCD50AD98087D20280A2120B0D
:1009E900E260F7E50A700104120401A90A600DE545
:1009F9000A600914F50A120C8AEF60F3EA30E7027B
:100A0900F404C3995079EAF4250A0430E701E404AF
:100A1900F50A800D120BE260C1EA050A250A1204E3
:100A290001EA9000BCF030E701E4250A04D50A0484
:100A390020050114120C00E4C0E0120C8A9000BCDD
:100A4900E0601320E70714F0120884802204F0D034
:100A5900E014C0E07F00120884E50A600712087BF1
:100A6900150A800B30050312087BD0E00208D6D0A6
:100A7900E00480C4120BE2609EE50A0412040190AE
:100A890000BCEAF0E50A2005026001042404120C06
:100A99000074FF04C0E0120C8A120884E50A2005DC
:100AA90002600312087BD0E0B50AE87F4512088E80
:100AB9009000BCE07F2B30E7047F2DF404C0E012E6
:100AC900089CD0E075F00A84C0F0120885D0E012C5
:100AD90008850208D6791080027908C206C2088002
:100AE90008D2D5790A8004790AC2D5E50A047002C8
:020AF900F50AFC
:100AFB00E4FAFDFEFF120859FC7B082001131208D3
:100B0B0059FD7B1030000A120859FE120859FF7B61
:100B1B0020EC3382D592D55013C3E43000069FFFEF
:100B2B00E49EFEE42001039DFDE49CFCE4CBF8C2B3
:100B3B0001EC700CCFCECDCCE824F8F870F3801715
:100B4B00C3EF33FFEE33FEED33FDEC33FCEB33FB46
:100B5B00994002FB0FD8E9EB300105F8D0E0C4480F
:100B6B00B201C0E00AEC4D4E4F78207B0070C2EA18
:100B7B00B50A0040BCC0E0120C02D0F0D0E020015E
:100B8B0004C4C0E0C4B201C0F0120885D0F0D5F0A7
:100B9B00EB0208D61208070973530ADE5809444CB6
:100BAB000940420AE24F0AEA440AEA490959430A50
:100BBB00F0550A1D460A7D4509E7470CBD5009480B
:100BCB002D094C2E096F2B095023096D200CAB2AD4
:100BDB0009084800000967E50AB4FF03750A061205
:100BEB000859FC120859FD120859FE120859FF90BA
:100BFB0000B502043E790AA2D5200314300509B9C9
:100C0B0010020404B9080104A2D520060250010405
:100C1B002002689202B509005034C0E07F203003F7
:100C2B00197F30A20272067205500F120C59C202C4
:100C3B00C206C205C2087F30800F300503E9C0E051
:100C4B0012089C300503D0E0F9D0E0B509CC300593
:100C5B00177F30B9100C12089C7F583004077F782F
:100C6B008003B9080312089C3002057F2D02089CF3
:100C7B007F202008F87F2B2006F322920280CF7F63
:100C8B0000B40700500B24B5F582E43400F583E083
:100C9B00FF22286E756C6C29002D50434958D201E8
:100CAB001208593001F8C201780930D50108F60253
:100CBB0009081208592403B405004001E4900CA460
:100CCB009312088D743A12088DD203750904020A27
:010CDB00DE3A
:100F4F009000951207AAE4FFFEFDFC900095E0F8D3
:100F5F00A3E0F9A3E0FAA3E0FB12034C7038FFFE05
:100F6F00FDFC900099E0F8A3E0F9A3E0FAA3E0FB01
:100F7F0012034C60084006E4FFFEFDFC229000992E
:100F8F001207B6FFFFFFFF900099E0FCA3E0FDA35F
:100F9F00E0FEA3E0FF22E490009DF0A3F0FFFEFD32
:100FAF00FC900095E0F8A3E0F9A3E0FAA3E0FB12B0
:100FBF00034C505F900099E0FCA3E0FDA3E0FEA37B
:100FCF00E0FF1203CA90009DEEF0A3EFF0FDCCEE10
:100FDF00CCE41201C3C8ECC8C9EDC9CAEECACBEF45
:100FEF00CB900099E0FCA3E0FDA3E0FEA3E0FF128D
:100FFF000029E4FBFAF9F812034C7081900095E098
:10100F00FCA3E0FDA3E0FEA3E0FF1203B99000955F
:10101F001207AA900095E0FCA3E0FDA3E0FEA3E079
:10102F00FF1210AE900099E0F8A3E0F9A3E0FAA345
:10103F00E0FB12024612140B9000991207AA9000BF
:10104F009EE030E017900099E0FCA3E0FDA3E0FEE6
:10105F00A3E0FF1203B99000991207AA900099E03C
:0B106F00FCA3E0FDA3E0FEA3E0FF22D5
:1001FC00E9D2E7C933E833F892D5EDD2E7CD33EC49
:07020C0033FC5002B2D522C1
:10021300EC30E7100FBF000C0EBE00080DBD00044C
:100223000BEB6014A2D5EB13FCED92E7FD2274FFF8
:10023300FCFDFEFF22E480F8A2D574FF13FC7D8051
:03024300E480EF65
:10024600EC4D6011E8497017ED33EC3304600DE4B2
:10025600FCFFFEFD22E933E8330470F80202311296
:1002660001FC58046009E4CC248150062850090298
:10027600023B284003020238C0E0EB4A7044B980D2
:1002860006D0E0FB020227EF4E701CBD8008EBFF94
:10029600EAFEE9FD80EBE98DF0A4FEE5F002032F0E
:1002A600E9CDF9EAFEEBFFEF89F0A4FCE5F0CE8993
:1002B600F0A42EFFE435F0CD89F0A42DFEE435F050
:1002C6008067EF4E7005BD80D780C3EF8BF0A4AC7E
:1002D600F0EE8BF0A42CFCE435F0F8EF8AF0A42CB9
:1002E600E5F038FCE433CB8DF0A42CFCE5F03BF8CC
:1002F600EE8AF0A42CFCE5F038F8E433CF89F0A4BC
:100306002CFCE5F038CF3400CE89F0A42FFFE5F0C1
:100316003EFEE433C98DF0A42EFEE5F039CD8AF019
:10032600A42FFFE5F03EFEE43DFD33D0E0FB500791
:100336000BBB000F02023BEC2CFCEF33FFEE33FE4F
:06034600ED33FD0202137D
:10034C0074F8CC6480CCC86480C8F582046043C364
:10035C00EB9FF5F0EA9E42F0E99D42F0E89C45F0F7
:10036C0060305018E5825FFFE582F42B5582FB501C
:10037C00210ABA001D09B90019088016E5825BFB39
:10038C00E582F42F5582FF50090EBE00050DBD000D
:10039C00010CC3EB9FF5F0EA9E42F0E99D42F0E8B8
:0D03AC009C45F06007CC4820E701B3EC222F
:1003B900ED33EC33600A047003BD8004ECB2E7FC52
:0103C9002211
:1003CA00EDD2E7CD33EC3392D524814006E4FFFE2B
:1003DA00FDFC22FCE4CFCECDCC24E0501174FF808A
:1003EA00EDC3CC13CCCD13CDCE13CECF13CF047027
:0703FA00F030D5DE020770B0
:10040100F920E73624F950037907E4F42402FBE5E7
:1004110082158270021583DBF6E024FB501BE96034
:1004210014E4F0E582158270021583E004F0B40A49
:0D04310008E4F0D9EE7401F00A22C2D522D1
:10043E00ED33EC3392D5FA602AB4FF33EDC2E77B8D
:10044E00FF60067A047963E4227A04796C20D5047D
:10045E007A047967224E614E002B494E46002D4993
:10046E004E4600E47A08F0A3DAFC7B00740722C043
:10047E0083C082ECC0E0EDC0E0EEC0E0EFC0E0EA89
:10048E0075F010A4CAABF075F04DA42BFBE435F05B
:10049E00FCEA2410FAEB34C5FBEC34D9FCEDC2E7D0
:1004AE00FF75F056A4F42411C5F0F434C58FF0A4F2
:1004BE002AE5F03BE43CF020E714120573D0E0FF90
:1004CE00D0E0FED0E0FDD0E0FC1201218014F40457
:1004DE00120573D0E0FFD0E0FED0E0FDD0E0FC12BC
:1004EE000246D082D083E0FAEDD2E7CD33EC33244E
:1004FE0082FBE4C3CF33CFCE33CECD33CD33DBF35C
:10050E007B0775F00A846004F0A31B0AE5F0F0A3E4
:10051E008FF0740AA4FFACF08EF0740AA42CFEAC1B
:10052E00F050010C8DF0740AA42CFDE435F0F0A30C
:05053E00DBDE74072262
:1013D30033DA929E35B16011377FE5FE3921848976
:1013E3003AAEC3FF3C1D955B3D6358473E75FDF028
:1013F3003F3172183F800000C2D502023B02023126
:10140300BD80FA50F3020238ED33EC330460F17B14
:101413003B7AAA79B8783F120246ED33EC3392D582
:10142300247B5011A2D570DB500BED448024045073
:1014330004A2D580CEEFFBEEFAEDF9ECF81203CA65
:10144300EFF582F404FC1201C812002DC082901340
:10145300D374091205C2ED33CC33D0F092D525F005
:0A146300A2D57001C313CC13FD22C3
:10107A003E9248DA3ECCCCCD3F2AAAAB40000000D3
:10108A003F8000003F9837F03FB504F33FD744FC58
:10109A003E3172173EB172173F0515913EDE5BD99C
:1010AA00D2008002C200EDD2E7F8CD33EC330470EF
:1010BA000BBD800592D502023B02023140FBD314DC
:1010CA0060F2F5F07C3FEE7A00C39496C8948B40A8
:1010DA00230AC89469C8941A401A0AC89468C8941A
:1010EA001F40110AC8945AC89425400805F07A008E
:1010FA00CDC2E7CDC0F090009F1207AAEA2323C011
:10110A00E0248AF582E43410F58312079A12002D3E
:10111A00ECC0E0EDC0E0EEC0E0EFC0E012077E9068
:10112A00009F12078E120029D0E0FBD0E0FAD0E02F
:10113A00F9D0E0B2E7F812012190009F1207AA90B5
:10114A00107A74031205B390009F12078E1202469A
:10115A00D0E0600F2496F582E43410F58312079AE2
:10116A0012002D90009F1207AAD0E0C3947FFDE4DD
:10117A009400FC1201C37B187A727931783F12020B
:10118A004690009F12078E12002D30000B7BD97AF1
:09119A005B79DE783E1202462268
:100543003F8000004120000042C80000447A0000C0
:10055300461C400047C35000497424004B18968042
:100563004CBEBC205A0E1BCA6753C21C749DC5AE39
:10057300FB60065407601C23231205A1EB5438606B
:100583000912058D12059C120246ECF8EDF9EEFAFC
:10059300EFCB22EB12059C80F1543803241C900509
:1005A30043FE93FC0EEE93FD0EEE930ECE93FF22CD
:1005B300C0E0EFFBEEFAEDF9ECF8120246D0E0F5FD
:1005C300F0EFFBEEFAEDF9ECF812077EA3A3A3A379
:1005D300E8C0E0E9C0E0EAC0E0EBC0E0C0F012022E
:1005E3004612079AA3A3A3A312002DD0F0D0E0FBD9
:0D05F300D0E0FAD0E0F9D0E0F8D5F0D42245
:0300000002146D7A
:0C146D00787FE4F6D8FD7581210214B4EC
:10060000E709F608DFFA8046E709F208DFFA803EDC
:1006100088828C83E709F0A3DFFA8032E309F608C9
:10062000DFFA8078E309F208DFFA807088828C8331
:10063000E309F0A3DFFA806489828A83E0A3F608E5
:10064000DFFA805889828A83E0A3F208DFFA804CBF
:1006500080D280FA80C680D4806980F28033801096
:1006600080A680EA809A80A880DA80E280CA8033FF
:1006700089828A83ECFAE493A3C8C582C8CCC58377
:10068000CCF0A3C8C582C8CCC583CCDFE9DEE78047
:100690000D89828A83E493A3F608DFF9ECFAA9F0C6
:1006A000EDFB2289828A83ECFAE0A3C8C582C8CC1C
:1006B000C583CCF0A3C8C582C8CCC583CCDFEADE35
:1006C000E880DB89828A83E493A3F208DFF980CC97
:1006D00088F0EF60010E4E60C388F0ED2402B40490
:1006E0000050B9F582EB2402B4040050AF23234537
:0606F00082239006507306
:1006F600BB010689828A83E0225002E722BBFE0202
:09070600E32289828A83E4932234
:10070F00BB010CE58229F582E5833AF583E022509F
:10071F0006E92582F8E622BBFE06E92582F8E222E9
:0D072F00E58229F582E5833AF583E4932203
:10073C00BB010689828A83F0225002F722BBFE019C
:02074C00F32296
:10074E00F8BB010DE58229F582E5833AF583E8F0E1
:10075E00225006E92582C8F622BBFE05E92582C88D
:02076E00F22275
:0E077000C3E49FFFE49EFEE49DFDE49CFC229A
:10077E00E493FC740193FD740293FE740393FF22C1
:0C078E00E0F8A3E0F9A3E0FAA3E0FB22EE
:10079A00E493F8740193F9740293FA740393FB22B5
:0C07AA00ECF0A3EDF0A3EEF0A3EFF022C2
:1007B600A8828583F0D083D0821207CD1207CD128E
:1007C60007CD1207CDE473E493A3C583C5F0C583B3
:1007D600C8C582C8F0A3C583C5F0C583C8C582C88D
:0107E60022F0
:1007E700F8E0FBA3A3E0F925F0F0E582158270029B
:0707F7001583E0FA38F0223F
:0907FE00EBF0A3EAF0A3E9F022FC
:10080700D083D082F8E4937012740193700DA3A380
:1008170093F8740193F5828883E473740293686094
:06082700EFA3A3A380DF94
:10179A00EFB40A07740D1217A5740A309811A899A4
:1017AA00B8130CC2983098FDA899C298B811F630AF
:0717BA0099FDC299F5992287
:10181300E4FFFE1206F6600C0FEF70010E09E9708B
:05182300F20A80EF2233
:10082D00EF4E6012EF60010EEDBB010B89828A83E2
:10083D00F0A3DFFCDEFA2289F05007F709DFFCA9EF
:0C084D00F022BBFEFCF309DFFCA9F02246
:10147900021678E493A3F8E493A34003F68001F2FB
:1014890008DFF48029E493A3F85407240CC8C33374
:10149900C4540F4420C8834004F456800146F6DF43
:1014A900E4800B01020408102040809016C4E47EF9
:1014B900019360BCA3FF543F30E509541FFEE49338
:1014C900A360010ECF54C025E060A840B8E493A3FF
:1014D900FAE493A3F8E493A3C8C582C8CAC583CA2A
:1014E900F0A3C8C582C8CAC583CADFE9DEE780BEE2
:01170F0000D9
:00000001FF
