:10000E00F25EEC5EFFF25EECF25EFF5E5E5EEC5E5A
:10001E00FF5EF25EECF25EFFE1E1DCE1E1DCFF5E51
:10002E005E5EEC5EECE1DCFFF25E5EEC5EECE18CC3
:10003E00FFC4C4ECDCECF2FF5E5EECEC5E5EFFEC4B
:10004E00E1DCFFF2FF5E5EECEC5E5EFFECE18CFF4E
:10005E00DCDCE1BEE1DCEC5E5EDCEC5E5EF2FFC49D
:10006E00EC5E003F8000003F8000003F0000003F3C
:10007E000000003F8000003F0000003F0000003FF6
:10008E000000003F0000003F8000003F0000003FE6
:10009E000000003F0000003F8000003F0000003FD6
:1000AE008000003F0000003F0000003F0000003FC6
:1000BE000000003F0000003F0000003F8000003FB6
:1000CE008000003F8000003F800000400000003FA5
:1000DE000000003F8000003FC000003F8000003F56
:1000EE008000003F8000003F0000003F0000003F06
:1000FE008000003F0000003F8000003FC000003F36
:10010E008000003F0000003F0000003F0000003F65
:10011E00000000400000003F0000003F8000003F54
:10012E00C000003F800000400000003F0000003F84
:10013E000000003F800000408000003F0000003FB4
:10014E000000003F4000003E8000003F4000003EA7
:10015E008000003F4000003E8000003F0000003F56
:10016E008000003F0000003F8000003F8000003F05
:10017E000000003F0000003F4000003E8000003FB6
:10018E004000003E8000003F4000003E8000003FE7
:10019E000000003F8000003F0000003F8000003F55
:1001AE00800000400000003F0000003F0000003FC4
:1001BE00800000408000003F0000003F8000003FB4
:1001CE00000000400000003F0000003F8000003FA4
:1001DE0000000040000000400000003F0000003F13
:0B01EE000000003F8000004080000087
:03000300010C00ED
:0E04A900758911758CD8758AEFD2AFD2A92251
:03000B000204C527
:0904C500050C758CD8758AEF3224
:10049700AD071FED600BE4FEEEC3947D50F20E80B6
:0104A700F75D
:0104A8002231
:0E04B7008F8D8D8BD28E308FFDC28EC28F2224
:10042A00E4F508F5091204A9E4F508F509E50990C7
:10043A00000E93FF6050F50BF590E4F50AE509AE5E
:10044A00087802C333CE33CED8F92471F58274000A
:10045A003EF58312038EE4FBFA79C878431201F958
:10046A001202FFAE070509E50970020508D28CE5FC
:10047A000C6E600BB2A3AD0BAF0A1204B780F0E4A6
:0D048A00F50CC28C80A77F64120497809B44
:1001F900EC4D6011E8497017ED33EC3304600DE400
:10020900FCFFFEFD22E933E8330470F802036B12A8
:10021900033658046009E4CC2481500628500902A9
:100229000375284003020372C0E0EB4A7044B980A9
:1002390006D0E0FB020361EF4E701CBD8008EBFFA6
:10024900EAFEE9FD80EBE98DF0A4FEE5F00202E2A9
:10025900E9CDF9EAFEEBFFEF89F0A4FCE5F0CE89E0
:10026900F0A42EFFE435F0CD89F0A42DFEE435F09D
:100279008067EF4E7005BD80D780C3EF8BF0A4ACCB
:10028900F0EE8BF0A42CFCE435F0F8EF8AF0A42C06
:10029900E5F038FCE433CB8DF0A42CFCE5F03BF819
:1002A900EE8AF0A42CFCE5F038F8E433CF89F0A409
:1002B9002CFCE5F038CF3400CE89F0A42FFFE5F00F
:1002C9003EFEE433C98DF0A42EFEE5F039CD8AF067
:1002D900A42FFFE5F03EFEE43DFD33D0E0FB5007DF
:1002E9000BBB000F020375EC2CFCEF33FFEE33FE62
:0602F900ED33FD02034D90
:1002FF00EDD2E7CD33EC3392D524814006E4FFFEF7
:10030F00FDFC22FCE4CFCECDCC24E0501174FF8055
:10031F00EDC3CC13CCCD13CDCE13CECF13CF0470F2
:07032F00F030D5DE0203806F
:10033600E9D2E7C933E833F892D5EDD2E7CD33EC0D
:0703460033FC5002B2D52286
:10034D00EC30E7100FBF000C0EBE00080DBD000411
:10035D000BEB6014A2D5EB13FCED92E7FD2274FFBD
:10036D00FCFDFEFF22E480F8A2D574FF13FC7D8016
:03037D00E480EF2A
:0300000002039E5A
:0C039E00787FE4F6D8FD75810C0203E5C1
:0E038000C3E49FFFE49EFEE49DFDE49CFC228E
:10038E00E493FC740193FD740293FE740393FF22B5
:1003AA0002042AE493A3F8E493A34003F68001F23B
:1003BA0008DFF48029E493A3F85407240CC8C33354
:1003CA00C4540F4420C8834004F456800146F6DF23
:1003DA00E4800B0102040810204080900003E47EB0
:1003EA00019360BCA3FF543F30E509541FFEE49318
:1003FA00A360010ECF54C025E060A840B8E493A3DF
:10040A00FAE493A3F8E493A3C8C582C8CAC583CA09
:10041A00F0A3C8C582C8CAC583CADFE9DEE780BEC1
:0100060000F9
:00000001FF
