:0A0254003F065B4F666D7D077F6F6C
:030266000108008C
:07025E00E4FF000FBFC9FB24
:010265002276
:10022300D3EF9400EE9400400DE4FD0DBD1BFCEFF5
:060233001F70ED1E80EAC1
:0102390022A2
:0C023A00152D152D152D152D152D152D2C
:010246002295
:1001F100E4FEFD74272DF8E6FFC3940A501C8EA07F
:10020100EF90025493FFED64016003BD04034307C3
:10021100808F8012025EE4F5800E0DBD06D575A0BB
:01022100FFDD
:0102220022B9
:0D024700759852758920758869758DFD22A6
:1001AD00E4F51CFF75110220A207AE110511EE70CA
:1001BD00F612023A12023A12023AE4F51630A2127F
:1001CD0075160175110230A20CAE110511EE600508
:1001DD0080F4E4F516E51C25E0F51CE516421C0F30
:0301ED00BF08C187
:0101F00022EC
:10008F00C2A27FB47E00120223D2A212023A12023F
:10009F003A12023A12023AD2A220A2597511022044
:1000AF00A207AF110511EF70F675110230A207AF5D
:1000BF00110511EF70F61201AD851C191201AD85F6
:1000CF001C1A1201AD851C0B1201AD851C0C1201FF
:1000DF00AD851C15D2A2851C90E50B250C25192585
:1000EF001AF516B5150F851917851A18850B098579
:0600FF000C0A8515132216
:10015A001202477F017E0012022312008FAF17EFAF
:10016A0075F00A84F527EF75F00A8485F02885185A
:10017A0029AB097A007C007D0AAF037E00120105D3
:10018A008F2A7E00AF037C007D0A1201058D2B8524
:10019A000A2C7BFFEB1BAE0270011A4E60BC1201E7
:0301AA00F180F1F0
:03000000020003F8
:0C000300787FE4F6D8FD75812D02004ADC
:10010500BC000BBE0029EF8DF084FFADF022E4CCDE
:10011500F875F008EF2FFFEE33FEEC33FCEE9DECA7
:10012500984005FCEE9DFE0FD5F0E9E4CEFD22EDED
:10013500F8F5F0EE8420D21CFEADF075F008EF2F37
:10014500FFED33FD4007985006D5F0F222C398FD28
:050155000FD5F0EA22C5
:10000F0002015AE493A3F8E493A34003F68001F2AC
:10001F0008DFF48029E493A3F85407240CC8C333F2
:10002F00C4540F4420C8834004F456800146F6DFC1
:10003F00E4800B0102040810204080900266E47EE9
:10004F00019360BCA3FF543F30E509541FFEE493B6
:10005F00A360010ECF54C025E060A840B8E493A37D
:10006F00FAE493A3F8E493A3C8C582C8CAC583CAA8
:10007F00F0A3C8C582C8CAC583CADFE9DEE780BE60
:010269000094
:00000001FF
