:1001AE0010083F065B4F666D7D077F6F777C395E6B
:0201BE00797155
:10012500D2AFD2A9758901758C3C758AAFD28CE4A2
:10013500F518F519D2A77580FAC2A7D2A675803F22
:10014500C2A6D290E51B640A451A70F8F51AF51B8C
:10015500D2A6AE18AF19FC7D0212009AED4C7007BD
:10016500758037C2908005758008D290C2A60519A2
:0B017500E5197002051812018080C916
:100180007FFA7E007DE67C00ED1D70011CED4C7059
:0A019000F7EF1F70011EEF4E70EA3A
:01019A002242
:03000B0002019B54
:10019B00C0E0758C3C758AAF051BE51B7002051A18
:0301AB00D0E0326F
:0300000002000EED
:0C000E00787FE4F6D8FD75811B020055D8
:10009A00C2D5EC30E709B2D5E4C39DFDE49CFCEE81
:1000AA0030E715B2D5E4C39FFFE49EFE1200D0C329
:1000BA00E49DFDE49CFC80031200D030D507C3E424
:0600CA009FFFE49EFE22F0
:10001A00020125E493A3F8E493A34003F68001F2D6
:10002A0008DFF48029E493A3F85407240CC8C333E7
:10003A00C4540F4420C8834004F456800146F6DFB6
:10004A00E4800B01020408102040809001AEE47E97
:10005A00019360BCA3FF543F30E509541FFEE493AB
:10006A00A360010ECF54C025E060A840B8E493A372
:10007A00FAE493A3F8E493A3C8C582C8CAC583CA9D
:10008A00F0A3C8C582C8CAC583CADFE9DEE780BE55
:0101C000003E
:1000D000BC000BBE0029EF8DF084FFADF022E4CC14
:1000E000F875F008EF2FFFEE33FEEC33FCEE9DECDD
:1000F000984005FCEE9DFE0FD5F0E9E4CEFD22ED23
:10010000F8F5F0EE8420D21CFEADF075F008EF2F6C
:10011000FFED33FD4007985006D5F0F222C398FD5D
:050120000FD5F0EA22FA
:00000001FF
