:10001E004D6F6C696875610048756C75776100434A
:10002E00757272656E743A002020204E6578743AAF
:10003E0000FA6CFA6CFC5EFCC4FD47FD47FCC4FC88
:10004E005EFC5EFCC4FC5EFA6CFA6CFC5EFCC4FDED
:10005E0047FD47FCC4FC5EFC5EFCC4FC5EFC5EFC23
:10006E005EFC5EFA6CFC5EFCC4FCC4FC5EFA6CFAD0
:10007E00DCFA6CFC5EFA6CFADCFA8CFA8CFADCFABE
:10008E008CFA6CFADCFA8CFA6CFADCFA6CFC5EFC1C
:10009E00C4FD47FC5EFADCFA6CFC5EFADCFA6CFA24
:1000AE008CF987F8BEF987FA8CFADCFA6CFA8CFABE
:1000BE00DCFA8CF987F8BE0001FCF2FC5EFBECFC6E
:1000CE005EFFFFFCF2FC5EFBECFCF2FC5EFFFFFC55
:1000DE005EFC5EFC5EFBECFC5EFFFFFC5EFCF2FC7D
:1000EE005EFBECFCF2FC5EFFFFF9E1F9E1FADCF9F4
:1000FE00E1F9E1FADCFFFFFC5EFC5EFC5EFBECFC72
:10010E005EFBECF9E1FADCFFFFFCF2FC5EFC5EFB51
:10011E00ECFC5EFBECF9E1FA8CFFFFFCC4FCC4FBCB
:10012E00ECFADCFBECFCF2FFFFFC5EFC5EFBECFB96
:10013E00ECFC5EFC5EFFFFFBECF9E1FADCFFFFFC82
:10014E00F2FFFFFC5EFC5EFBECFBECFC5EFC5EFF7C
:10015E00FFFBECF9E1FA8CFFFFFADCFADCF9E1F8CF
:10016E00BEF9E1FADCFBECFC5EFC5EFADCFBECFCBF
:10017E005EFC5EFCF2FFFFFCC4FBECFC5E000100CB
:10018E00003F8000003F0000003F0000003F0000E5
:10019E00003F0000003F0000003F0000003F8000D5
:1001AE00003F0000003F000000400000003F8000C4
:1001BE00003F0000003F0000003F0000003F000035
:1001CE00003F0000003F0000003F8000003F0000A5
:1001DE00003F000000400000003F8000003F800014
:1001EE00003F8000003F0000003F0000003F800005
:1001FE00003F800000400000003F8000003F0000F4
:10020E00003F0000003F8000003F0000003F000064
:10021E00003F8000003F0000003F00000040000053
:10022E00003F0000003F0000003F0000003F0000C4
:10023E00003FC000003F0000003F8000003F000074
:10024E00003F000000400000003F8000003F000023
:10025E00003F0000003F0000003F0000003F000094
:10026E00003F000000400000003F8000003F800083
:10027E00003FC000003F0000003F0000003F0000B4
:10028E00003F0000003F000000404000003F8000A3
:10029E00003F8000003F8000003F0000003F000054
:1002AE00003F8000003F0000003F0000003F0000C4
:1002BE00003F0000003F8000003F0000003F0000B4
:1002CE00003F0000003F8000003F0000003F800024
:1002DE00003F0000003F0000003F0000003F000014
:1002EE00003F0000003F0000003F8000003F800004
:1002FE00003F8000003F800000400000003F0000F3
:10030E00003F8000003FC000003F8000003F8000A3
:10031E00003F8000003F0000003F0000003F8000D3
:10032E00003F0000003F8000003FC000003F800003
:10033E00003F0000003F0000003F0000003F0000B3
:10034E0000400000003F0000003F8000003FC00062
:10035E00003F800000400000003F0000003F000012
:10036E00003F800000408000003F0000003F000082
:10037E00003F4000003E8000003F4000003E8000F5
:10038E00003F4000003E8000003F0000003F800024
:10039E00003F0000003F8000003F8000003F000053
:1003AE00003F0000003F4000003E8000003F400044
:1003BE00003E8000003F4000003E8000003F0000F5
:1003CE00003F8000003F0000003F8000003F8000A3
:1003DE0000400000003F0000003F0000003F800092
:1003EE0000408000003F0000003F8000003F000002
:1003FE0000400000003F0000003F8000003F000072
:10040E000040000000400000003F0000003F0000E0
:10041E00003F800000408000003F8000003F8000D1
:01042E0000CD
:10091D0002080000011900010A000413001E002640
:09092D00040E002D0036011A0130
:1005ED00120762E4F51975F002E519A4243FF582AE
:1005FD00E5F03400F583E493FE740193FF4E700330
:10060D0002075AEF64014E60030206F40519D2A3E6
:10061D007F011200037F80120003AA0EA90F7BFF3A
:10062D001209378F17E4F50DE50DC395175015E534
:10063D000F250DF582E4350E1209107F1412095F96
:10064D00050D80E4E51A25E02413F8E6FE08E6AA78
:10065D0006F97BFF1209378F17E4F50DE50DC395EC
:10066D0017500C1208FC7F1412095F050D80ED0563
:10067D001A531A017FC0120003AA10A9117BFF1291
:10068D0009378F17E4F50DE50DC395175015E511D5
:10069D00250DF582E435101209107F1412095F053E
:1006AD000D80E4E51A25E02413F8E6FE08E6AA0617
:1006BD00F97BFF1209378F17E4F50DE50DC395177B
:1006CD00500C1208FC7F1412095F050D80ED75F0BA
:1006DD0002E519A4243FF582E5F03400F583740199
:1006ED00937002E493606675F002E519A4243FF55A
:1006FD0082E5F03400F583E493FC740193FDECF591
:10070D0012EDF51875F004E519A4248FF582E5F0C6
:10071D003401F5831205C4E4FBFA79207842120402
:10072D002F1205358E0B8F0C0519D28CE509650C32
:10073D007004E508650B600BB2A3AD18AF1212097A
:10074D007180E9E4F508F509C28C0205F37F6412A6
:05075D00095F0205F038
:10076200758911758CD8758AEFD2AFD2A9D2ABC276
:10077200A7C2A6C2B4E4F50D7F381200037F0C12A3
:1007820000037F061200037F011200037F80120024
:1007920003AA0EA90F7BFF1209378F17E4F50DE5A7
:1007A2000DC395175015E50F250DF582E4350E1290
:1007B20009107F1412095F050D80E4AA13A9147BA6
:1007C200FF1209378F17E4F50DE50DC39517501584
:1007D200E514250DF582E435131209107F14120970
:1007E2005F050D80E47FC0120003AA10A9117BFFF0
:1007F2001209378F17E4F50DE50DC395175015E56E
:1008020011250DF582E435101209107F1412095FCB
:10081200050D80E4AA15A9167BFF1209378F17E48C
:10082200F50DE50DC395175015E516250DF582E476
:0F08320035151209107F1412095F050D80E4229D
:03000B0002094C9B
:10094C00C0E00509E50970020508758CD8758AEFB9
:03095C00D0E032B6
:03001B0002000ED2
:04000E00750A01323C
:10095F00AD071FED600BE4FEEEC3947D50F20E80E9
:01096F00F790
:010970002264
:100971008F8D8D8BD28EE50A60FCE4F50AC28E2242
:0F08CD008F807F017E001208DCD2B47F057E0091
:1008DC00D3EF9400EE6480948040147D6E7C00ED28
:0F08EC001D70011CED4C70F7EF1F70E41E80E1D2
:0108FB0022DA
:08000300C2B51208CDC2B422FF
:1008FC00E51A25E02413F8E6FE08E68E83250DF5AF
:09090C0082E43583F583E493FFD6
:08091500D2B51208CDC2B422D4
:10042F00EC4D6011E8497017ED33EC3304600DE4C7
:10043F00FCFFFEFD22E933E8330470F80205A11238
:10044F00056C58046009E4CC248150062850090239
:10045F0005AB2840030205A8C0E0EB4A7044B98001
:10046F0006D0E0FB020597EF4E701CBD8008EBFF36
:10047F00EAFEE9FD80EBE98DF0A4FEE5F002051838
:10048F00E9CDF9EAFEEBFFEF89F0A4FCE5F0CE89A8
:10049F00F0A42EFFE435F0CD89F0A42DFEE435F065
:1004AF008067EF4E7005BD80D780C3EF8BF0A4AC93
:1004BF00F0EE8BF0A42CFCE435F0F8EF8AF0A42CCE
:1004CF00E5F038FCE433CB8DF0A42CFCE5F03BF8E1
:1004DF00EE8AF0A42CFCE5F038F8E433CF89F0A4D1
:1004EF002CFCE5F038CF3400CE89F0A42FFFE5F0D7
:1004FF003EFEE433C98DF0A42EFEE5F039CD8AF02F
:10050F00A42FFFE5F03EFEE43DFD33D0E0FB5007A6
:10051F000BBB000F0205ABEC2CFCEF33FFEE33FEF1
:06052F00ED33FD0205831F
:10053500EDD2E7CD33EC3392D524814006E4FFFEBE
:10054500FDFC22FCE4CFCECDCC24E0501174FF801D
:10055500EDC3CC13CCCD13CDCE13CECF13CF0470BA
:07056500F030D5DE0205B6FF
:10056C00E9D2E7C933E833F892D5EDD2E7CD33ECD5
:07057C0033FC5002B2D5224E
:10058300EC30E7100FBF000C0EBE00080DBD0004D9
:100593000BEB6014A2D5EB13FCED92E7FD2274FF85
:1005A300FCFDFEFF22E480F8A2D574FF13FC7D80DE
:0305B300E480EFF2
:03000000020841B2
:0C084100787FE4F6D8FD75811A02088863
:0E05B600C3E49FFFE49EFEE49DFDE49CFC2256
:1005C400E493FC740193FD740293FE740393FF227D
:10093700E4FFFE1205D4600C0FEF70010E09E97099
:05094700F20A80EF221E
:10084D000205EDE493A3F8E493A34003F68001F2CF
:10085D0008DFF48029E493A3F85407240CC8C333AC
:10086D00C4540F4420C8834004F456800146F6DF7B
:10087D00E4800B010204081020408090091DE47EE5
:10088D00019360BCA3FF543F30E509541FFEE49370
:10089D00A360010ECF54C025E060A840B8E493A337
:1008AD00FAE493A3F8E493A3C8C582C8CAC583CA62
:1008BD00F0A3C8C582C8CAC583CADFE9DEE780BE1A
:0109360000C0
:1005D400BB010689828A83E0225002E722BBFE0225
:0905E400E32289828A83E4932258
:00000001FF
