:1000AC003F065B4F666D7D077F6F777C395E79719C
:10001E00E4F509F50AF50B758911758CD8758AF01A
:10002E00758DB1758BE0D2AFD2A9D2ABD28CD28EF8
:10003E00D2A77580EAC2A7D2A675803FC2A6E508F0
:10004E00B41906E4F5086390FFE50B6464450A7085
:10005E00EDF50AF50B0509E509B41003E4F509D22F
:0D006E00A6E5099000AC93F580C2A680D1F4
:10007B00D3EF9400EE940040147D6E7C00ED1D7068
:0D008B00011CED4C70F7EF1F70E61E80E3C6
:010098002245
:03000B0002009957
:10009900C0E0758CD8758AF0050BE50B7002050A6E
:0300A900D0E03272
:03001B000200BC24
:0900BC00758DB1758BE005083269
:0300000002000EED
:0C000E00787FE4F6D8FD75810B02001E1F
:00000001FF
