:10024C002020323030372D372D3330204D4F4E009B
:0D025C002020202020203A20203A202000E1
:1001D900C2B48F807F057E001201EAD2B47F057E0A
:0101E9000015
:1001EA00D3EF9400EE940040147D6E7C00ED1D70F8
:0D01FA00011CED4C70F7EF1F70E61E80E356
:0102070022D4
:10022E00C2A37F327E001201EAD2A37F647E001247
:0E023E0001EAC2A37F327E001201EAD2A3229F
:0902C900AD097F0A12020C7FCA84
:0802D200C2B51201D9C2B42229
:0802F400D2B51201D9C2B422F7
:10013C00D2AFD2A8D288C2A6C2A7C2B47B0A7D0D08
:10014C007F0E1202837D267F0B12029C7F0C120203
:10015C00697F381202D27F0C1202D27F061202D2B1
:10016C007F011202D27F801202D2E4FBEB90024C90
:10017C0093FF1202F41201E60BBB0FF07FC01202C8
:10018C00D2E4FBEB90025C93FF1202F41201E60B3B
:03019C00BB0CF0A9
:01019F00223D
:04020800AD0B7F07B4
:10020C00ED75F00A84FBED75F00A84AAF0EF24C0BA
:10021C00FF1202D2EB2430FF1202F4EA2430FF0268
:02022C0002F4DA
:10000600C2B7E50D6401702120B10F7F05FE120114
:10001600EA20B10630B1FDE4F50D20B20C1201E67E
:1000260020B20630B2FDE4F50D20B05A1201E620EA
:10003600B01C050E750801E4F50D30B0FDE50EB4F3
:10004600010CC28C7FCA1202D27F0F1202D2E50EB9
:10005600B402057FC71202D2E50EB403057FC412AF
:1000660002D2E50EB4041FE4F50E7F0C1202D2E4B0
:10007600F508AD09FF12029CAD0B7F0212029CAD82
:100086000C7F0412029CE50E700302013B20B15165
:100096007F017E001201EA20B14730B1FDE50EB4C2
:1000A600010D0509E509B43C03E4F5091202C9E5A9
:1000B6000EB40212050BE50BB43C03E4F50B120279
:1000C600087FC71202D2E50EB40316050CE50CB480
:1000D6001803E4F50CAD0C7F0412020C7FC4120267
:1000E600D220B2517F017E001201EA20B24730B21F
:1000F600FDE50EB4010D1509E509B4FF0375093BCD
:100106001202C9E50EB40212150BE50BB4FF037516
:100116000B3B1202087FC71202D2E50EB403161576
:100126000CE50CB4FF03750C17AD0C7F0412020C22
:060136007FC41202D22278
:10029C00C294D295D297D2968F80C295C2968D80F9
:0702AC00D296D295D29422F4
:10026900D295D297D296C2948F80C295C297758043
:09027900FFAF80D297D295D29418
:010282002259
:0E02DA007D0A7F0412029C7D207F0202029C9E
:10028300AE07AC05AD037F0112029CAD047F0312E0
:09029300029CAD067F0502029CED
:1001A00012013C120006E50DB4010312022EE5080F
:1001B00070F1FF1202698F097F021202698F0B7FB3
:1001C000041202698F0CAD097F0A12020C12020898
:0901D000AD0C7F0412020C80CA80
:030003000202B343
:0702B300C0D075D000C007A8
:0A02BA00750D017F0C1202698F0F11
:0502C400D007D0D0328C
:030000000202E811
:0C02E800787FE4F6D8FD75810F0201A0BC
:00000001FF
