:1000030068656C6C6F20776F726C6421004100002F
:0F0013000000FF5100000000FF400000000095BA
:0606B900012500013200E2
:10066900758920758DFD758BFDD28ED29CC29FD266
:100679009ED2AFD2AC7E007F207D007B007A0079CC
:04068900340201AA8C
:0806B1008F993099FDC29922D6
:060547008B0C8A0D890EE9
:10054D00C2AC12068D8E0F8F10E4FDFCC3ED95101D
:10055D00E50F6480F8EC6480985018AB0CAA0DA9D7
:10056D000E8D828C83120135FF1206B10DBD000177
:10057D000C80D97F0A1206B17E007F207D00AB0C66
:09058D00AA0DA90E1201AAD2ACBC
:010596002242
:0300230002060DC5
:10060D00C0E0C0D075D000C00030981CC29885994C
:10061D0031E531640A600B74342532F8A6310532A8
:0F062D008006753200752501D000D0D0D0E032A4
:0306C000AF252241
:1004F6008B178A188919E4F525FB7A0079341206D8
:100506008D8F267B007A00793412068DA819AC18D7
:10051600AD177B007A0079341200F67B007A0079F9
:100526003412068DAB17AA18A9198F828E83E4128E
:1005360001627E007F207D007B007A007934020113
:01054600AA0A
:0306C300AF26223D
:0406A2007F507E0007
:0B06A600EF1FAC0670011E4C70F62226
:04029700120135FF1C
:10029B008F20A2079291C293E53360031206A2D27C
:1002AB0093E53360031206A2A2069291C293E53343
:1002BB0060031206A2D293E53360031206A2A205D5
:1002CB009291C293E53360031206A2D293E5336099
:1002DB00031206A2A2049291C293E53360031206A5
:1002EB00A2D293E53360031206A2A2039291C293AA
:1002FB00E53360031206A2D293E53360031206A224
:10030B00A2029291C293E53360031206A2D293E547
:10031B003360031206A2A2019291C293E5336003EC
:10032B001206A2D293E53360031206A2A2009291A9
:10033B00C293E53360031206A2D293E53360031236
:03034B0006A222E5
:10034E00D290D293E53360031206A2C293E53360D6
:10035E00031206A2A2909207D293E533600312060F
:10036E00A2C293E53360031206A2A2909206D29324
:10037E00E53360031206A2C293E53360031206A2B0
:10038E00A2909205D293E53360031206A2C293E5C2
:10039E003360031206A2A2909204D293E533600357
:1003AE001206A2C293E53360031206A2A290920334
:1003BE00D293E53360031206A2C293E533600312B3
:1003CE0006A2A2909202D293E53360031206A2C255
:1003DE0093E53360031206A2A2909201D293E53305
:1003EE0060031206A2C293E53360031206A2A29026
:0503FE009200AF202277
:10059700E4F516D2927FFF12029BC29212011CFF52
:1005A70012029B900001120297900002120297908C
:1005B700000312029790000412029790000512029E
:1005C7009712034E0516BFFF0BE516C394207480E0
:0405D700948340EDDC
:0105DB0022FD
:10063C00780C7C007D007BFF7A0079107E007F06B1
:10064C001200F6C2927B007A00790C120597AD0766
:0C065C00E4F533D2927FFF12029BAF0541
:01066800226F
:08048F008F0F8E0E8D0D8C0CF9
:1004970078107C007D007BFF7A0079167E007F064E
:1004A7001200F6AF0FAE0EAD0DAC0C780912019726
:1004B7008F0F8E0E8D0D8C0CE4FFFEFDE50C78186A
:1004C7001201848F11E4FFFEE50DFDE4FC781012A4
:1004D70001848F12E4FFE50EFEE4FDFC78081201AB
:0E04E700848F13C2927B007A00791012059761
:0104F50022E4
:1005DC00780C7C007D007BFF7A00791C7E007F0606
:1005EC001200F6753301D292E4FD7FFF12029B0DCF
:1005FC00BD0FF7C2927B007A00790C120597D2924C
:01060C0022CB
:1001D600E4752408752320F522F521F50812066931
:1001E6007BFF7A007903120547E508640160071270
:1001F60005DC8F0880F37FFF12029BE5086007127B
:10020600063C8F0880F57508FFAF24AE23AD22ACFF
:100216002112048F8F08E50870EFE50864FE600779
:1002260012034E8F0880F3E4F50AF50B12034E74A1
:1002360000250BF5827400350AF583EFF0050BE512
:100246000B7002050AC3E50A940240E0E490000A36
:10025600F07B017A007900120547E4F50AF50B7484
:1002660000250BF5827400350AF583E0FF74272517
:100276000BF8A607050BE50B7002050A640A450A8A
:1002860070DD12034E12034ED2927FFF12029B8044
:01029600FE69
:03000000020403F4
:0C040300787FE4F6D8FD75815302044AAE
:10002600E709F608DFFA8046E709F208DFFA803EBC
:1000360088828C83E709F0A3DFFA8032E309F608A9
:10004600DFFA8078E309F208DFFA807088828C8311
:10005600E309F0A3DFFA806489828A83E0A3F608C5
:10006600DFFA805889828A83E0A3F208DFFA804C9F
:1000760080D280FA80C680D4806980F28033801076
:1000860080A680EA809A80A880DA80E280CA8033DF
:1000960089828A83ECFAE493A3C8C582C8CCC58357
:1000A600CCF0A3C8C582C8CCC583CCDFE9DEE78027
:1000B6000D89828A83E493A3F608DFF9ECFAA9F0A6
:1000C600EDFB2289828A83ECFAE0A3C8C582C8CCFC
:1000D600C583CCF0A3C8C582C8CCC583CCDFEADE15
:1000E600E880DB89828A83E493A3F208DFF980CC77
:1000F60088F0EF60010E4E60C388F0ED2402B40470
:100106000050B9F582EB2402B4040050AF23234516
:06011600822390007673C5
:10011C00BB010689828A83E0225002E722BBFE02E1
:09012C00E32289828A83E4932214
:10013500BB010CE58229F582E5833AF583E022507F
:1001450006E92582F8E622BBFE06E92582F8E222C9
:0D015500E58229F582E5833AF583E49322E3
:10016200F8BB010DE58229F582E5833AF583E8F0D3
:10017200225006E92582C8F622BBFE05E92582C87F
:02018200F22267
:10018400E8600FECC313FCED13FDEE13FEEF13FF59
:03019400D8F1227D
:10019700E8600FEFC333FFEE33FEED33FDEC33FCC6
:0301A700D8F1226A
:10068D00E4FFFE12011C600C0FEF70010E09E97002
:05069D00F20A80EF22CB
:1001AA00EF4E6012EF60010EEDBB010B89828A836C
:1001BA00F0A3DFFCDEFA2289F05007F709DFFCA979
:0C01CA00F022BBFEFCF309DFFCA9F022D0
:10040F000201D6E493A3F8E493A34003F68001F22C
:10041F0008DFF48029E493A3F85407240CC8C333EE
:10042F00C4540F4420C8834004F456800146F6DFBD
:10043F00E4800B01020408102040809006B9E47E8E
:10044F00019360BCA3FF543F30E509541FFEE493B2
:10045F00A360010ECF54C025E060A840B8E493A379
:10046F00FAE493A3F8E493A3C8C582C8CAC583CAA4
:10047F00F0A3C8C582C8CAC583CADFE9DEE780BE5C
:0106BF00003A
:00000001FF
