:10134500252E32662C252E32662C252E32663B0044
:021355000BB8D3
:0A137600015A000166000258000051
:1012DF00758921758DFD758BFDD28ED29CC29FD2E3
:1012EF009ED2AFD2AC7E007F207D007B017A007949
:0412FF00140207CC02
:081357008D828C83120707FF51
:08135F008F993099FDC299221B
:06123E008B088A09890AF1
:10124400C2AC1200068E0B8F0CE4FDFCC3ED950CB2
:10125400E50B6480F8EC6480985010AB08AA09A9E7
:101264000A1213570DBD00010C80E17E007F207D22
:0C12740000AB08AA09A90A1207CCD2ACF2
:01128000224B
:0611F6008B388A39893AAA
:1011FC00C2AC1200068E3B8F3CE4FDFCC3ED953C6B
:10120C00E53B6480F8EC6480985010AB38AA39A99F
:10121C003A1213570DBD00010C80E17F0A12135FC7
:10122C007E007F207D00AB38AA39A93A1207CCD2B8
:01123C00AC05
:01123D00228E
:0300230002128145
:10128100C0E0C083C082C0D0309823C298859965E0
:10129100E565640A601274142566F582E43400F58C
:1012A10083E565F005668006756600755A01D0D044
:0712B100D082D083D0E032AF
:03001B00AF5A22B7
:101157008B0D8A0E890FE4F55A7B017A00791412F8
:1011670000068F607B017A007914120006A80FAC85
:101177000EAD0D7B017A0079141206C87B017A0047
:101187007914120006AB0DAA0EA90F8F828E83E485
:101197001207467E007F207D007B017A00791402CA
:0211A70007CC73
:03001E00AF6022AE
:100D9C001212DF121303C39013557401939559E487
:100DAC0093955850F1C2CAE4F558F559FFFE7DC829
:100DBC007C42AB64AA63A962A861120126C004C07C
:100DCC0005C006C007901355E493FC740193FDE431
:100DDC001202D1A804A905AA06AB07D007D006D0E9
:100DEC0005D00412022F8F5E8E5D8D5C8C5BE4F55A
:100DFC003FF53EF53D753C40120EC77B337A337997
:100E0C00737840120126C004C005C006C007E4F583
:100E1C003FF53E753D40753C40AF5EAE5DAD5CACA4
:100E2C005B120EC77BCD7ACC798C783F120126D021
:100E3C0003D002D001D000120031C004C005C0069E
:100E4C00C007E4FFFE7D027C44AB5EAA5DA95CA8F2
:100E5C005B120126D003D002D001D0001200357BEA
:100E6C00527AB8791E783F1200358F578E568D55B1
:100E7C008C54753BFF753C13753D4585644185630A
:100E8C004085623F85613E855E45855D44855C435A
:100E9C00855B428F498E488D478C467B017A007961
:100EAC00001208547B017A0079001211F6E4F56403
:0B0EBC00F563F562F561D2CA020DA2D9
:10132500D3EF9400EE6480948040147D6E7C00EDD4
:0F1335001D70011CED4C70F7EF1F70E41E80E17E
:011344002286
:10130300E4F564F563F562F561F58AF58CD2A8D24C
:101313008875CBFC75CA18F5C8F5C9D2ADD2CAD247
:02132300AF22F7
:030003000211A93E
:1011A900C0E0C0F0C083C082C0D075D018D28C30E6
:1011B900B2FD858A90AB64AA63A962A861C018C010
:1011C90019C01AC01BAF8A12103CD01BD01AD019F3
:1011D900D0181200358F648E638D628C61C28C7554
:0D11E9008A00D0D0D082D083D0F0D0E03288
:03002B0002136756
:0F136700C0E0C2CF0559E55970020558D0E032F9
:02103C008F2201
:10103E00E4F523F524F528F527F526F52575290180
:10104E00E5225529B5290BE4F528F5277526807577
:10105E00253F752300752401E52925E0F529552244
:10106E00B5293EAB28AA27A926A825C000C001C0D5
:10107E0002C003AC23AD24EC1202D18F3F8E3E8D05
:10108E003D8C3C7F007E007D007C40120EC7D0035D
:10109E00D002D001D0001200358F288E278D268CDD
:1010AE00250524E52470020523C39408E5236480F6
:0C10BE00948040A4AF28AE27AD26AC25DE
:0110CA002203
:10002E0002033FE86480F8E933E83360110460F0BE
:10003E00ED33EC337009E8FCE9FDEAFEEBFF220438
:10004E0060DED3EB9FEA9EE99DE8C2E78CF0C2F733
:10005E0095F0400CE8CCF8E9CDF9EACEFAEBCFFBFF
:10006E0012030A85D0F05804700320D5B3E804704B
:10007E00075002B2D502034992D5EC0460F7E4CCE6
:10008E00C0E0C398F8603B94186008400DD0E0FBC8
:10009E00020321E4FBFAC9FC8028E830E406E4C937
:1000AE00FBE4CAFCE830E305E4C9CACBFCE854071C
:1000BE006010F8C3E913F9EA13FAEB13FBEC13FC27
:1000CE00D8F130F52FC3E49CFCEF9BFFEE9AFEEDCA
:1000DE0099FDD0E0FBEF4E4D4C701222DB03020374
:1000EE0046EC2CFCEF33FFEE33FEED33FDED30E747
:1000FE00EB020321EF2BFFEE3AFEED39FDD0E0FBD4
:10010E0050130BBB0003020349ED13FDEE13FEEF7C
:08011E0013FFEC13FC020321A6
:10012600EC4D6011E8497017ED33EC3304600DE4D3
:10013600FCFFFEFD22E933E8330470F802033F12A8
:10014600030A58046009E4CC2481500628500902A9
:100156000349284003020346C0E0EB4A7044B980D5
:1001660006D0E0FB020335EF4E701CBD8008EBFFA6
:10017600EAFEE9FD80EBE98DF0A4FEE5F002020F50
:10018600E9CDF9EAFEEBFFEF89F0A4FCE5F0CE89B4
:10019600F0A42EFFE435F0CD89F0A42DFEE435F071
:1001A6008067EF4E7005BD80D780C3EF8BF0A4AC9F
:1001B600F0EE8BF0A42CFCE435F0F8EF8AF0A42CDA
:1001C600E5F038FCE433CB8DF0A42CFCE5F03BF8ED
:1001D600EE8AF0A42CFCE5F038F8E433CF89F0A4DD
:1001E6002CFCE5F038CF3400CE89F0A42FFFE5F0E3
:1001F6003EFEE433C98DF0A42EFEE5F039CD8AF03B
:10020600A42FFFE5F03EFEE43DFD33D0E0FB5007B2
:100216000BBB000F020349EC2CFCEF33FFEE33FE61
:06022600ED33FD0203218F
:10022C00020349EC5D046005E85904700302033FC6
:10023C0012030A580460F6EC4860F2EC7004FDFE00
:10024C00FF22C860DB2481C85009C39860025006A5
:10025C000203469850CAF582E9294B4A7005AB82D5
:10026C0002033575F0007C1A7880C3EF9BEE9AED93
:10027C0099400DC3EF9BFFEE9AFEED99FDE842F01D
:10028C00DC23ACF0D0E0FFD0E0FED0E0FDAB822070
:10029C00E7101BEB60BAEC2CFCEF33FFEE33FEEDFA
:1002AC0033FD020321E803F830E705C0F075F000D8
:1002BC00EF2FFFEE33FEED33FD40B830E7C280AADE
:1002CC0075F020800E75F010800575F0087D007EAD
:1002DC00007F003392D530D503120768EC33401001
:1002EC00EF33FFEE33FEED33FDEC33FCD5F0ED22B6
:0E02FC00E5F0247EA2D513CC92E7CDCEFF22F2
:1007F800E54F243BF8E6054F227838300802783B6D
:10080800E475F0011207960206EE2001EB7F2ED266
:10081800018018EF540F2490D43440D4FF30050BD6
:10082800EF24BFB41A0050032461FFE5506002159D
:10083800500553E5537002055230080D7838E475B9
:10084800F001120796EF0207340212B87403D208B7
:100858008003E4C208F54F8B388A39893AE4F550A9
:10086800F552F553E55060077F2012083380F5757F
:1008780051FFC202C201C203C204C206C207C209B2
:10088800120801FF700D3008057F00120844AF53AD
:10089800AE5222B4255FC2D5C205120801FF24D08A
:1008A800B40A00501A75F00A785030D50508B6FF1A
:1008B8000106C6A426F620D5047002D20480D924E5
:1008C800CFB41A00EF5004C2E5D205020B31D202B0
:1008D80080C6D20180C0D20380BCD2D580BAD206ED
:1008E80080B47F201208332003077401B5500040FC
:1008F800F11207F8FF12083302086CD209D20780F8
:10090800951207F8FB1207F8FA1207F8F94A4B7024
:100918000679287A0C7BFF20032EE550602A7E009A
:100928008E8275830012070760060EEE655170F01F
:10093800C2D5EBC0E0EAC0E0E9C0E0EE120B91D00E
:10094800E0F9D0E0FAD0E0FB1206EEFF60AAEBC0B7
:10095800E0EAC0E0E9C0E0120833D0E02401F9D0B1
:10096800E03400FAD0E0FBE5510460DCD551D980D1
:1009780087D20380A2120B7460F7E551700104124C
:100988000409A951600DE551600914F551120C1BB9
:10099800EF60F3EA30E702F404C3995077EAF425EC
:1009A800510430E701E404F551800D120B7460C165
:1009B800EA05512551120409EA784EF630E701E4B8
:1009C800255104D5510420060114120B91E4C0E00E
:1009D800120C1B784EE6601320E70714F612081B6A
:1009E800802204F6D0E014C0E07F0012081BE55115
:1009F80060071208121551800B300603120812D036
:100A0800E002086CD0E00480C5120B7460A0E551C8
:100A180004120409784EEAF6E55120060260010442
:050A28002404120B91F3
:100A2D0074FF04C0E0120C1B12081BE551200602D6
:100A3D006003120812D0E0B551E87F451208257801
:100A4D004EE67F2B30E7047F2DF404C0E01208330F
:100A5D00D0E075F00A84C0F012081CD0E012081C1A
:100A6D0002086C791080027908C207C2098008D289
:100A7D00D5790A8004790AC2D5E551047002F55181
:100A8D00E4FAFDFEFF1207F8FC7B082002131207A3
:100A9D00F8FD7B1030010A1207F8FE1207F8FF7BF4
:100AAD0020EC3382D592D55013C3E43001069FFF5D
:100ABD00E49EFEE42002039DFDE49CFCE4CBF8C221
:100ACD0002EC700CCFCECDCCE824F8F870F3801783
:100ADD00C3EF33FFEE33FEED33FDEC33FCEB33FBB5
:100AED00994002FB0FD8E9EB300205F8D0E0C4487D
:100AFD00B202C0E00AEC4D4E4F78207B0070C2EA86
:100B0D00B5510040BCC0E0120B93D0F0D0E02002F4
:100B1D0004C4C0E0C4B202C0F012081CD0F0D5F07D
:100B2D00EB02086C1207A60909530A705808DA4C33
:100B3D0008D6420A744F0A7C440A7C4908EF430ADE
:100B4D00825509B3460A1145097D470C485008DE08
:100B5D002D08E22E09052B08E6230903200C312A66
:100B6D00089E48000008FDE551B4FF0375510612BB
:100B7D0007F8FC1207F8FD1207F8FE1207F8FF78C8
:100B8D0047020438790AA2D5200414300609B91099
:100B9D00020404B9080104A2D52007025001042063
:100BAD0003689203B550005034C0E07F2030041923
:100BBD007F30A20372077206500F120BEAC203C2F6
:100BCD0007C206C2097F30800F300603E9C0E0126C
:100BDD000833300603D0E0F9D0E0B550CC3006171D
:100BED007F30B9100C1208337F583005077F78809D
:100BFD0003B908031208333003057F2D0208337F34
:100C0D00202009F87F2B2007F322920380CF7F004D
:100C1D00B4070050052447F8E6FF22286E756C6C6A
:100C2D002900D2021207F83002F8C202785030D5EE
:100C3D000108F602089E2D504349581207F8240367
:100C4D00B405004001E4900C4393120824743A1249
:0A0C5D000824D204755004020A7046
:100EC7008F3B8E3A8D398C38E4FFFEFDFCAB3BAA95
:100ED7003AA939A8381203547026FFFEFDFCAB3F30
:100EE700AA3EA93DA83C12035460084006E4FFFE51
:100EF700FDFC2274FFF53FF53EF53DF53C020F99E9
:100F0700E4F540F541FFFEFDFCAB3BAA3AA939A841
:100F170038120354504BAF3FAE3EAD3DAC3C1203CD
:100F2700D28E408F41AC40AD41EC1202D1C8ECC823
:100F3700C9EDC9CAEECACBEFCBAF3FAE3EAD3DACB4
:100F47003C120031E4FBFAF9F812035470A5AF3BE9
:100F5700AE3AAD39AC381203C18F3B8E3A8D398C1E
:100F670038AF3BAE3AAD39AC38120C9BAB3FAA3E1B
:100F7700A93DA83C120126120FDA8F3F8E3E8D3D08
:100F87008C3CE54130E00B1203C18F3F8E3E8D3D17
:0B0F97008C3CAF3FAE3EAD3DAC3C22B9
:10030A00E9D2E7C933E833F892D5EDD2E7CD33EC39
:07031A0033FC5002B2D522B2
:10032100EC30E7100FBF000C0EBE00080DBD00043D
:100331000BEB6014A2D5EB13FCED92E7FD2274FFE9
:10034100FCFDFEFF22E480F8A2D574FF13FC7D8042
:03035100E480EF56
:1003540074F8CC6480CCC86480C8F582046043C35C
:10036400EB9FF5F0EA9E42F0E99D42F0E89C45F0EF
:1003740060305018E5825FFFE582F42B5582FB5014
:10038400210ABA001D09B90019088016E5825BFB31
:10039400E582F42F5582FF50090EBE00050DBD0005
:1003A400010CC3EB9FF5F0EA9E42F0E99D42F0E8B0
:0D03B4009C45F06007CC4820E701B3EC2227
:1003C100ED33EC33600A047003BD8004ECB2E7FC4A
:0103D1002209
:1003D200EDD2E7CD33EC3392D524814006E4FFFE23
:1003E200FDFC22FCE4CFCECDCC24E0501174FF8082
:1003F200EDC3CC13CCCD13CDCE13CECF13CF04701F
:07040200F030D5DE020768AF
:10040900F920E72824F950037907E4F42402FB18BA
:10041900DBFDE624FB5014E9600DE4F618E604F66A
:0F042900B40A08E4F6D9F57401F60A22C2D52206
:10043800ED33EC3392D5FA602AB4FF33EDC2E77B93
:10044800FF60067A04795DE4227A04796620D5048F
:100458007A047961224E614E002B494E46002D499F
:100468004E4600E47A08F608DAFC7B00740722E8B6
:10047800C0E0ECC0E0EDC0E0EEC0E0EFC0E0EA753F
:10048800F010A4CAABF075F04DA42BFBE435F0FCDA
:10049800EA2410FAEB34C5FBEC34D9FCEDC2E7FFD3
:1004A80075F056A4F42411C5F0F434C58FF0A42ACD
:1004B800E5F03BE43CF620E71412056BD0E0FFD0F2
:1004C800E0FED0E0FDD0E0FC12022F8014F404120C
:1004D800056BD0E0FFD0E0FED0E0FDD0E0FC1201DB
:1004E80026D0E0F8E6FAEDD2E7CD33EC332482FBF0
:1004F800E4C3CF33CFCE33CECD33CD33DBF37B075D
:1005080075F00A846004F6081B0AE5F0F6088FF017
:10051800740AA4FFACF08EF0740AA42CFEACF05060
:10052800010C8DF0740AA42CFDE435F0F608DBDE2E
:0305380074072223
:100FA20033DA929E35B16011377FE5FE39218489AB
:100FB2003AAEC3FF3C1D955B3D6358473E75FDF05D
:100FC2003F3172183F800000C2D502034902033F3D
:100FD200BD80FA50F3020346ED33EC330460F17B3B
:100FE2003B7AAA79B8783F120126ED33EC3392D5D9
:100FF200247B5011A2D570DB500BED4480240450A9
:1010020004A2D580CEEFFBEEFAEDF9ECF81203D292
:10101200EFF582F404FC1202D6120035C082900F62
:10102200A274091205BAED33CC33D0F092D525F073
:0A103200A2D57001C313CC13FD22F8
:100C67003E9248DA3ECCCCCD3F2AAAAB40000000EA
:100C77003F8000003F9837F03FB504F33FD744FC6F
:100C87003E3172173EB172173F0515913EDE5BD9B3
:100C9700D2018002C201EDD2E7F8CD33EC33047004
:100CA7000BBD800592D502034902033F40FBD314D5
:100CB70060F2F5F07C3FEE7A00C39496C8948B40BF
:100CC700230AC89469C8941A401A0AC89468C89431
:100CD7001F40110AC8945AC89425400805F07A00A5
:100CE700CDC2E7CDC0F08C428D438E448F45EA23B9
:100CF70023C0E02477F582E4340CF58312078612CB
:100D07000035ECC0E0EDC0E0EEC0E0EFC0E0120758
:100D170076A842A943AA44AB45120031D0E0FBD0E4
:100D2700E0FAD0E0F9D0E0B2E7F812022F8C428D5A
:100D3700438E448F45900C6774031205ABA842A9F4
:100D470043AA44AB45120126D0E0600F2483F58205
:100D5700E4340CF5831207861200358C428D438EDE
:100D6700448F45D0E0C3947FFDE49400FC1202D188
:100D77007B187A727931783F120126A842A943AAD3
:100D870044AB4512003530010B7BD97A5B79DE78AD
:050D97003E12012622BE
:10053B003F8000004120000042C80000447A0000C8
:10054B00461C400047C35000497424004B1896804A
:10055B004CBEBC205A0E1BCA6753C21C749DC5AE41
:10056B00FB60065407601C2323120599EB5438607B
:10057B0009120585120594120126ECF8EDF9EEFA35
:10058B00EFCB22EB12059480F1543803241C900519
:10059B003BFE93FC0EEE93FD0EEE930ECE93FF22DD
:1005AB00C0E0EFFBEEFAEDF9ECF8120126D0E0F526
:1005BB00F0EFFBEEFAEDF9ECF8120776A3A3A3A389
:1005CB00E8C0E0E9C0E0EAC0E0EBC0E0C0F0120137
:1005DB0026120786A3A3A3A3120035D0F0D0E0FB0D
:0D05EB00D0E0FAD0E0F9D0E0F8D5F0D4224D
:030000000210CB20
:0C10CB00787FE4F6D8FD75816A021112EE
:1005F800E709F608DFFA8046E709F208DFFA803EE5
:1006080088828C83E709F0A3DFFA8032E309F608D1
:10061800DFFA8078E309F208DFFA807088828C8339
:10062800E309F0A3DFFA806489828A83E0A3F608ED
:10063800DFFA805889828A83E0A3F208DFFA804CC7
:1006480080D280FA80C680D4806980F2803380109E
:1006580080A680EA809A80A880DA80E280CA803307
:1006680089828A83ECFAE493A3C8C582C8CCC5837F
:10067800CCF0A3C8C582C8CCC583CCDFE9DEE7804F
:100688000D89828A83E493A3F608DFF9ECFAA9F0CE
:10069800EDFB2289828A83ECFAE0A3C8C582C8CC24
:1006A800C583CCF0A3C8C582C8CCC583CCDFEADE3D
:1006B800E880DB89828A83E493A3F208DFF980CC9F
:1006C80088F0EF60010E4E60C388F0ED2402B40498
:1006D8000050B9F582EB2402B4040050AF2323453F
:0606E80082239006487316
:1006EE00BB010689828A83E0225002E722BBFE020A
:0906FE00E32289828A83E493223D
:10070700BB010CE58229F582E5833AF583E02250A7
:1007170006E92582F8E622BBFE06E92582F8E222F1
:0D072700E58229F582E5833AF583E493220B
:10073400BB010689828A83F0225002F722BBFE01A4
:02074400F3229E
:10074600F8BB010DE58229F582E5833AF583E8F0E9
:10075600225006E92582C8F622BBFE05E92582C895
:02076600F2227D
:0E076800C3E49FFFE49EFEE49DFDE49CFC22A2
:10077600E493FC740193FD740293FE740393FF22C9
:10078600E493F8740193F9740293FA740393FB22C9
:10079600FAE6FB0808E6F925F0F618E6CA3AF62264
:1007A600D083D082F8E4937012740193700DA3A3E2
:1007B60093F8740193F5828883E4737402936860F6
:0607C600EFA3A3A380DFF6
:1012B800EFB40A07740D1212C3740A309811A89972
:1012C800B8130CC2983098FDA899C298B811F63096
:0712D80099FDC299F599226E
:10000600E4FFFE1206EE600C0FEF70010E09E970B8
:05001600F20A80EF2258
:1007CC00EF4E6012EF60010EEDBB010B89828A8344
:1007DC00F0A3DFFCDEFA2289F05007F709DFFCA951
:0C07EC00F022BBFEFCF309DFFCA9F022A8
:1010D700020D9CE493A3F8E493A34003F68001F286
:1010E70008DFF48029E493A3F85407240CC8C3331A
:1010F700C4540F4420C8834004F456800146F6DFE9
:10110700E4800B0102040810204080901376E47EEF
:10111700019360BCA3FF543F30E509541FFEE493DD
:10112700A360010ECF54C025E060A840B8E493A3A4
:10113700FAE493A3F8E493A3C8C582C8CAC583CACF
:10114700F0A3C8C582C8CAC583CADFE9DEE780BE87
:01138000006C
:00000001FF
