:1001710010083F065B4F666D7D077F6F777C395EA8
:02018100797192
:10011D00D2AFD2A8E4F518F519D2A77580FAC2A707
:10012D00D291D2A60519E51970020518142408F804
:10013D00E6F580C2A6AE18AF197C007D10120092B4
:09014D008C188D1912015680D79F
:100156007FFA7E007DE67C00ED1D70011CED4C7083
:0A016600F7EF1F70011EEF4E70EA64
:01017000226C
:0300030002018473
:03018400C29132F3
:03000000020006F5
:0C000600787FE4F6D8FD75811902004DEA
:10009200C2D5EC30E709B2D5E4C39DFDE49CFCEE89
:1000A20030E715B2D5E4C39FFFE49EFE1200C8C339
:1000B200E49DFDE49CFC80031200C830D507C3E434
:0600C2009FFFE49EFE22F8
:1000120002011DE493A3F8E493A34003F68001F2E6
:1000220008DFF48029E493A3F85407240CC8C333EF
:10003200C4540F4420C8834004F456800146F6DFBE
:10004200E4800B0102040810204080900171E47EDC
:10005200019360BCA3FF543F30E509541FFEE493B3
:10006200A360010ECF54C025E060A840B8E493A37A
:10007200FAE493A3F8E493A3C8C582C8CAC583CAA5
:10008200F0A3C8C582C8CAC583CADFE9DEE780BE5D
:01018300007B
:1000C800BC000BBE0029EF8DF084FFADF022E4CC1C
:1000D800F875F008EF2FFFEE33FEEC33FCEE9DECE5
:1000E800984005FCEE9DFE0FD5F0E9E4CEFD22ED2B
:1000F800F8F5F0EE8420D21CFEADF075F008EF2F75
:10010800FFED33FD4007985006D5F0F222C398FD65
:050118000FD5F0EA2202
:00000001FF
