:1013FE0025322E32662C25322E32663B0025322EB9
:10140E0032660025322E326625250054656D703AFF
:08141E000048756D69643A0095
:0614B800012300012B00DE
:10144D00758920758DFD758BFDD28ED29CC29FD274
:10145D009ED2AFD2AC7E007F207D007B007A0079DA
:04146D00310207C47D
:08001B008F993099FDC2992272
:061309008B538A54895544
:10130F00C2AC1214718E568F57E4FDFCC3ED955786
:10131F00E5566480F8EC6480985018AB53AA54A932
:10132F00558D828C831206FFFF12001B0DBD00012D
:10133F000C80D97F0A12001B7E007F207D00AB53EB
:09134F00AA54A9551207C4D2AC3E
:011358002272
:030023000213A025
:1013A000C0E0C0D075D000C00030981CC2988599AC
:1013B0002AE52A640A600B7431252BF8A62A052B2E
:0F13C0008006752B00752301D000D0D0D0E0320D
:0314BF00AF232236
:1012B8008B088A09890AE4F523FB7A00793112142C
:1012C800718F297B007A007931121471A80AAC0950
:1012D800AD087B007A0079311206C07B007A00796C
:1012E80031121471AB08AA09A90A8F828E83E412FD
:1012F800073E7E007F207D007B007A00793102075F
:01130800C420
:0314C200AF29222D
:0F13CF008F807F017E001213DED2B47F057E0077
:1013DE00D3EF9400EE6480948040147D6E7C00ED1B
:0F13EE001D70011CED4C70F7EF1F70E41E80E1C5
:0113FD0022CD
:071486007F0112148D7F802D
:08148D00C2B51213CFC2B42254
:0814B000D2B51213CFC2B42221
:10000300C2A7C2A6C2B47F3812148D7F0C12148DFE
:080013007F0612148D02148611
:0D149500EFD3940040077E6EDEFE1F80F353
:0114A2002227
:0C14A300155315531553155315531553CD
:0114AF00221A
:04135900A3E528F0F0
:10135D00E4FF75300220A207AE300530EE70F612B4
:10136D0014A31214A31214A3E4F52230A2037522C0
:10137D000175300230A207AE300530EE70F6E53063
:10138D006401600EE52825E0F528E52242280FBF0F
:02139D0008C086
:01139F00222B
:021113008F53F8
:10111500E4F554F555F559F558F557F556755A0151
:10112500E553555AB55A0BE4F559F5587557807579
:10113500563F755400755501E55A25E0F55A555346
:10114500B55A3EAB59AA58A957A856C000C001C008
:1011550002C003AC54AD55EC1201C38F628E618D94
:10116500608C5F7F007E007D007C40120F9ED00367
:10117500D002D001D00012002D8F598E588D578C7A
:10118500560555E55570020554C39408E554648029
:0C119500948040A4AF59AE58AD57AC5642
:0111A100222B
:02122E008F53DC
:10123000E4F557F556F555F554755980F558AF58FE
:10124000E559A807088002C313D8FC5553D394006E
:101250004054AB57AA56A955A854C000C001C002BB
:10126000C003E5582401FDE433FCE41201C38F629E
:101270008E618D608C5F7F007E007D007C40120F50
:101280009EA804A905AA06AB07E4FFFE7D807C3F6B
:10129000120121D003D002D001D00012002D8F57AF
:1012A0008E568D558C540558E558C39404408FAF25
:0712B00057AE56AD55AC54DA
:0112B7002214
:100D9400C2A27F227E00121495D2A21214A31214AE
:100DA400A31214A31214A3D2A230A203020E9B75A1
:100DB400300220A207AF300530EF70F675300230F4
:100DC400A207AF300530EF70F612135D900017E5FF
:100DD40028F012135D121359900000E528F0121345
:100DE4005D121359900016E528F0D2A2900001E09C
:100DF400FE900000E0FD2EFF900017E0FC2FFBA307
:100E0400E0FF2BF52265286003020E9B780EA604F2
:100E140008A607780BA60508A606900016E008F6B3
:100E240012122EC004C005C006C007900017E0FFD0
:100E3400121113D003D002D001D00012002D8F2F35
:100E44008E2E8D2D8C2C900001E0FF12122EC004EA
:100E5400C005C006C007900000E0FF121113D003C4
:100E6400D002D001D00012002D8F278E268D258C24
:100E7400247556FF7557137558FE8F5C8E5B8D5A1B
:100E84008C59852F60852E5F852D5E852C5D7B01B9
:080E94007A00790212084C22D9
:100E9C0012144D120003120D947B017A0079021288
:100EAC0013097556FF75571475580B85275C8526E5
:100EBC005B85255A8524597B017A00791912084CD7
:100ECC007556FF755714755811852F5C852E5B85EB
:100EDC002D5A852C597B017A00791F12084C12145B
:100EEC00867BFF7A1479191214718F51E4F552E54F
:100EFC0052C39551500EE55290141993FF1214B031
:100F0C00055280EB7B017A0079191214718F51E430
:100F1C00F552E552C39551501474192552F582E4DB
:100F2C003400F583E0FF1214B0055280E57FDF1228
:100F3C0014B07F431214B07FC312148D7BFF7A144C
:100F4C00791F1214718F51E4F552E552C39551502B
:100F5C000EE55290141F93FF1214B0055280EB7BD8
:100F6C00017A00791F1214718F51E4F552E552C3C6
:100F7C0095515014741F2552F582E43400F583E02A
:100F8C00FF1214B0055280E57F107E2712149502D3
:020F9C000EA2A3
:10002600020231E86480F8E933E83360110460F0D5
:10003600ED33EC337009E8FCE9FDEAFEEBFF220440
:1000460060DED3EB9FEA9EE99DE8C2E78CF0C2F73B
:1000560095F0400CE8CCF8E9CDF9EACEFAEBCFFB07
:100066001201FC85D0F05804700320D5B3E8047063
:10007600075002B2D502023B92D5EC0460F7E4CCFD
:10008600C0E0C398F8603B94186008400DD0E0FBD0
:10009600020213E4FBFAC9FC8028E830E406E4C94E
:1000A600FBE4CAFCE830E305E4C9CACBFCE8540724
:1000B6006010F8C3E913F9EA13FAEB13FBEC13FC2F
:1000C600D8F130F52FC3E49CFCEF9BFFEE9AFEEDD2
:1000D60099FDD0E0FBEF4E4D4C701222DB0302027D
:1000E60038EC2CFCEF33FFEE33FEED33FDED30E75D
:1000F600EB020213EF2BFFEE3AFEED39FDD0E0FBEB
:1001060050130BBB000302023BED13FDEE13FEEF93
:0801160013FFEC13FC020213BD
:10011E0002023BEC5D046005E859047003020231F3
:10012E001201FC580460F6EC4860F2EC7004FDFE1F
:10013E00FF22C860DB2481C85009C39860025006B4
:10014E000202389850CAF582E9294B4A7005AB82F3
:10015E0002022775F0007C1A7880C3EF9BEE9AEDB1
:10016E0099400DC3EF9BFFEE9AFEED99FDE842F02C
:10017E00DC23ACF0D0E0FFD0E0FED0E0FDAB82207F
:10018E00E7101BEB60BAEC2CFCEF33FFEE33FEED09
:10019E0033FD020213E803F830E705C0F075F000F6
:1001AE00EF2FFFEE33FEED33FD40B830E7C280AAED
:1001BE0075F020800E75F010800575F0087D007EBC
:1001CE00007F003392D530D503120760EC33401018
:1001DE00EF33FFEE33FEED33FDEC33FCD5F0ED22C5
:0E01EE00E5F0247EA2D513CC92E7CDCEFF2201
:1007F000E56A2456F8E6056A2278533007027856EF
:10080000E475F00112078E0206E62000EB7F2ED27F
:10081000008018EF540F2490D43440D4FF30040BE0
:10082000EF24BFB41A0050032461FFE56B6002158A
:100830006B056EE56E7002056D30070D7853E4753B
:10084000F00112078EEF02072C0214267403D20760
:100850008003E4C207F56A8B538A548955E4F56B2B
:10086000F56DF56EE56B60077F2012082B80F5753E
:100870006CFFC201C200C202C203C205C206C208A6
:100880001207F9FF700D3007057F0012083CAF6EAC
:10089000AE6D22B4255FC2D5C2041207F9FF24D081
:1008A000B40A00501A75F00A786B30D50508B6FF07
:1008B0000106C6A426F620D5047002D20380D924EE
:1008C000CFB41A00EF5004C2E5D204020B29D201C2
:1008D00080C6D20080C0D20280BCD2D580BAD205F8
:1008E00080B47F2012082B2002077401B56B0040F2
:1008F000F11207F0FF12082B020864D208D206801A
:10090000951207F0FB1207F0FA1207F0F94A4B7044
:100910000679207A0C7BFF20022EE56B602A7E0090
:100920008E827583001206FF60060EEE656C70F015
:10093000C2D5EBC0E0EAC0E0E9C0E0EE120B89D01E
:10094000E0F9D0E0FAD0E0FB1206E6FF60AAEBC0C7
:10095000E0EAC0E0E9C0E012082BD0E02401F9D0C1
:10096000E03400FAD0E0FBE56C0460DCD56CD980A3
:1009700087D20280A2120B6C60F7E56C7001041242
:100980000401A96C600DE56C600914F56C120C1380
:10099000EF60F3EA30E702F404C3995077EAF425F4
:1009A0006C0430E701E404F56C800D120B6C60C13F
:1009B000EA056C256C120401EA7869F630E701E477
:1009C000256C04D56C0420050114120B89E4C0E0E9
:1009D000120C137869E6601320E70714F612081367
:1009E000802204F6D0E014C0E07F00120813E56C0A
:1009F000600712080A156C800B30050312080AD034
:100A0000E0020864D0E00480C5120B6C60A0E56CC5
:100A1000041204017869EAF6E56C2005026001041D
:050A20002404120B8903
:100A250074FF04C0E0120C13120813E56C200502D4
:100A3500600312080AD0E0B56CE87F4512081D78FE
:100A450069E67F2B30E7047F2DF404C0E012082B04
:100A5500D0E075F00A84C0F0120814D0E012081432
:100A6500020864791080027908C206C2088008D29B
:100A7500D5790A8004790AC2D5E56C047002F56C53
:100A8500E4FAFDFEFF1207F0FC7B082001131207B4
:100A9500F0FD7B1030000A1207F0FE1207F0FF7B15
:100AA50020EC3382D592D55013C3E43000069FFF66
:100AB500E49EFEE42001039DFDE49CFCE4CBF8C22A
:100AC50001EC700CCFCECDCCE824F8F870F380178C
:100AD500C3EF33FFEE33FEED33FDEC33FCEB33FBBD
:100AE500994002FB0FD8E9EB300105F8D0E0C44886
:100AF500B201C0E00AEC4D4E4F78207B0070C2EA8F
:100B0500B56C0040BCC0E0120B8BD0F0D0E02001EA
:100B150004C4C0E0C4B201C0F0120814D0F0D5F08E
:100B2500EB02086412079E0901530A685808D24C63
:100B350008CE420A6C4F0A74440A744908E7430A0E
:100B45007A5509AB460A09450975470C405008D640
:100B55002D08DA2E08FD2B08DE2308FB200C292A98
:100B6500089648000008F5E56CB4FF03756C06129D
:100B750007F0FC1207F0FD1207F0FE1207F0FF78F0
:100B850062020430790AA2D5200314300509B91090
:100B9500020404B9080104A2D5200602500104206C
:100BA50002689202B56B005034C0E07F2030031913
:100BB5007F30A20272067205500F120BE2C202C20A
:100BC50006C205C2087F30800F300503E9C0E01278
:100BD500082B300503D0E0F9D0E0B56BCC30051714
:100BE5007F30B9100C12082B7F583004077F7880AE
:100BF50003B9080312082B3002057F2D02082B7F4D
:100C0500202008F87F2B2006F322920280CF7F0058
:100C1500B4070050052462F8E6FF22286E756C6C57
:100C25002900D2011207F03001F8C201786B30D5E6
:100C35000108F60208962D504349581207F024037F
:100C4500B405004001E4900C3B9312081C743A1261
:0A0C5500081CD203756B04020A6844
:100F9E008F5E8E5D8D5C8C5BE4FFFEFDFCAB5EAA0E
:100FAE005DA95CA85B12034C7026FFFEFDFCAB62D4
:100FBE00AA61A960A85F12034C60084006E4FFFE18
:100FCE00FDFC2274FFF562F561F560F55F021070AD
:100FDE00E4F563F564FFFEFDFCAB5EAA5DA95CA8BB
:100FEE005B12034C504BAF62AE61AD60AC5F12034F
:100FFE00CA8E638F64AC63AD64EC1201C3C8ECC8D7
:10100E00C9EDC9CAEECACBEFCBAF62AE61AD60AC73
:10101E005F120029E4FBFAF9F812034C70A5AF5EDB
:10102E00AE5DAD5CAC5B1203B98F5E8E5D8D5C8C7C
:10103E005BAF5EAE5DAD5CAC5B120C93AB62AA6156
:10104E00A960A85F1202461210B18F628E618D6088
:10105E008C5FE56430E00B1203B98F628E618D6098
:0B106E008C5FAF62AE61AD60AC5F2232
:1001FC00E9D2E7C933E833F892D5EDD2E7CD33EC49
:07020C0033FC5002B2D522C1
:10021300EC30E7100FBF000C0EBE00080DBD00044C
:100223000BEB6014A2D5EB13FCED92E7FD2274FFF8
:10023300FCFDFEFF22E480F8A2D574FF13FC7D8051
:03024300E480EF65
:10024600EC4D6011E8497017ED33EC3304600DE4B2
:10025600FCFFFEFD22E933E8330470F80202311296
:1002660001FC58046009E4CC248150062850090298
:10027600023B284003020238C0E0EB4A7044B980D2
:1002860006D0E0FB020227EF4E701CBD8008EBFF94
:10029600EAFEE9FD80EBE98DF0A4FEE5F002032F0E
:1002A600E9CDF9EAFEEBFFEF89F0A4FCE5F0CE8993
:1002B600F0A42EFFE435F0CD89F0A42DFEE435F050
:1002C6008067EF4E7005BD80D780C3EF8BF0A4AC7E
:1002D600F0EE8BF0A42CFCE435F0F8EF8AF0A42CB9
:1002E600E5F038FCE433CB8DF0A42CFCE5F03BF8CC
:1002F600EE8AF0A42CFCE5F038F8E433CF89F0A4BC
:100306002CFCE5F038CF3400CE89F0A42FFFE5F0C1
:100316003EFEE433C98DF0A42EFEE5F039CD8AF019
:10032600A42FFFE5F03EFEE43DFD33D0E0FB500791
:100336000BBB000F02023BEC2CFCEF33FFEE33FE4F
:06034600ED33FD0202137D
:10034C0074F8CC6480CCC86480C8F582046043C364
:10035C00EB9FF5F0EA9E42F0E99D42F0E89C45F0F7
:10036C0060305018E5825FFFE582F42B5582FB501C
:10037C00210ABA001D09B90019088016E5825BFB39
:10038C00E582F42F5582FF50090EBE00050DBD000D
:10039C00010CC3EB9FF5F0EA9E42F0E99D42F0E8B8
:0D03AC009C45F06007CC4820E701B3EC222F
:1003B900ED33EC33600A047003BD8004ECB2E7FC52
:0103C9002211
:1003CA00EDD2E7CD33EC3392D524814006E4FFFE2B
:1003DA00FDFC22FCE4CFCECDCC24E0501174FF808A
:1003EA00EDC3CC13CCCD13CDCE13CECF13CF047027
:0703FA00F030D5DE020760C0
:10040100F920E72824F950037907E4F42402FB18C2
:10041100DBFDE624FB5014E9600DE4F618E604F672
:0F042100B40A08E4F6D9F57401F60A22C2D5220E
:10043000ED33EC3392D5FA602AB4FF33EDC2E77B9B
:10044000FF60067A047955E4227A04795E20D504A7
:100450007A047959224E614E002B494E46002D49AF
:100460004E4600E47A08F608DAFC7B00740722E8BE
:10047000C0E0ECC0E0EDC0E0EEC0E0EFC0E0EA7547
:10048000F010A4CAABF075F04DA42BFBE435F0FCE2
:10049000EA2410FAEB34C5FBEC34D9FCEDC2E7FFDB
:1004A00075F056A4F42411C5F0F434C58FF0A42AD5
:1004B000E5F03BE43CF620E714120563D0E0FFD002
:1004C000E0FED0E0FDD0E0FC1201218014F4041223
:1004D0000563D0E0FFD0E0FED0E0FDD0E0FC1202EA
:1004E00046D0E0F8E6FAEDD2E7CD33EC332482FBD8
:1004F000E4C3CF33CFCE33CECD33CD33DBF37B0765
:1005000075F00A846004F6081B0AE5F0F6088FF01F
:10051000740AA4FFACF08EF0740AA42CFEACF05068
:10052000010C8DF0740AA42CFDE435F0F608DBDE36
:030530007407222B
:1010790033DA929E35B16011377FE5FE39218489D3
:101089003AAEC3FF3C1D955B3D6358473E75FDF085
:101099003F3172183F800000C2D502023B02023183
:1010A900BD80FA50F3020238ED33EC330460F17B72
:1010B9003B7AAA79B8783F120246ED33EC3392D5E0
:1010C900247B5011A2D570DB500BED4480240450D1
:1010D90004A2D580CEEFFBEEFAEDF9ECF81203CAC3
:1010E900EFF582F404FC1201C812002DC0829010A1
:1010F9007974091205B2ED33CC33D0F092D525F0CD
:0A110900A2D57001C313CC13FD2220
:100C5F003E9248DA3ECCCCCD3F2AAAAB40000000F2
:100C6F003F8000003F9837F03FB504F33FD744FC77
:100C7F003E3172173EB172173F0515913EDE5BD9BB
:100C8F00D2008002C200EDD2E7F8CD33EC3304700E
:100C9F000BBD800592D502023B02023140FBD314FB
:100CAF0060F2F5F07C3FEE7A00C39496C8948B40C7
:100CBF00230AC89469C8941A401A0AC89468C89439
:100CCF001F40110AC8945AC89425400805F07A00AD
:100CDF00CDC2E7CDC0F08C658D668E678F68EA2335
:100CEF0023C0E0246FF582E4340CF58312077E12E3
:100CFF00002DECC0E0EDC0E0EEC0E0EFC0E0120769
:100D0F006EA865A966AA67AB68120029D0E0FBD070
:100D1F00E0FAD0E0F9D0E0B2E7F81201218C658D4E
:100D2F00668E678F68900C5F74031205A3A865A980
:100D3F0066AA67AB68120246D0E0600F247BF5828B
:100D4F00E4340CF58312077E12002D8C658D668EB0
:100D5F00678F68D0E0C3947FFDE49400FC1201C359
:100D6F007B187A727931783F120246A865A966AA74
:100D7F0067AB6812002D30000B7BD97A5B79DE7878
:050D8F003E12024622A5
:100533003F8000004120000042C80000447A0000D0
:10054300461C400047C35000497424004B18968052
:100553004CBEBC205A0E1BCA6753C21C749DC5AE49
:10056300FB60065407601C2323120591EB5438608B
:100573000912057D12058C120246ECF8EDF9EEFA2C
:10058300EFCB22EB12058C80F1543803241C900529
:1005930033FE93FC0EEE93FD0EEE930ECE93FF22ED
:1005A300C0E0EFFBEEFAEDF9ECF8120246D0E0F50D
:1005B300F0EFFBEEFAEDF9ECF812076EA3A3A3A399
:1005C300E8C0E0E9C0E0EAC0E0EBC0E0C0F012023E
:1005D3004612077EA3A3A3A312002DD0F0D0E0FB05
:0D05E300D0E0FAD0E0F9D0E0F8D5F0D42255
:030000000211A248
:0C11A200787FE4F6D8FD75816E0211E93B
:1005F000E709F608DFFA8046E709F208DFFA803EED
:1006000088828C83E709F0A3DFFA8032E309F608D9
:10061000DFFA8078E309F208DFFA807088828C8341
:10062000E309F0A3DFFA806489828A83E0A3F608F5
:10063000DFFA805889828A83E0A3F208DFFA804CCF
:1006400080D280FA80C680D4806980F280338010A6
:1006500080A680EA809A80A880DA80E280CA80330F
:1006600089828A83ECFAE493A3C8C582C8CCC58387
:10067000CCF0A3C8C582C8CCC583CCDFE9DEE78057
:100680000D89828A83E493A3F608DFF9ECFAA9F0D6
:10069000EDFB2289828A83ECFAE0A3C8C582C8CC2C
:1006A000C583CCF0A3C8C582C8CCC583CCDFEADE45
:1006B000E880DB89828A83E493A3F208DFF980CCA7
:1006C00088F0EF60010E4E60C388F0ED2402B404A0
:1006D0000050B9F582EB2402B4040050AF23234547
:0606E00082239006407326
:1006E600BB010689828A83E0225002E722BBFE0212
:0906F600E32289828A83E4932245
:1006FF00BB010CE58229F582E5833AF583E02250B0
:10070F0006E92582F8E622BBFE06E92582F8E222F9
:0D071F00E58229F582E5833AF583E4932213
:10072C00BB010689828A83F0225002F722BBFE01AC
:02073C00F322A6
:10073E00F8BB010DE58229F582E5833AF583E8F0F1
:10074E00225006E92582C8F622BBFE05E92582C89D
:02075E00F22285
:0E076000C3E49FFFE49EFEE49DFDE49CFC22AA
:10076E00E493FC740193FD740293FE740393FF22D1
:10077E00E493F8740193F9740293FA740393FB22D1
:10078E00FAE6FB0808E6F925F0F618E6CA3AF6226C
:10079E00D083D082F8E4937012740193700DA3A3EA
:1007AE0093F8740193F5828883E4737402936860FE
:0607BE00EFA3A3A380DFFE
:10142600EFB40A07740D121431740A309811A89992
:10143600B8130CC2983098FDA899C298B811F63026
:0714460099FDC299F59922FE
:10147100E4FFFE1206E6600C0FEF70010E09E97041
:05148100F20A80EF22D9
:1007C400EF4E6012EF60010EEDBB010B89828A834C
:1007D400F0A3DFFCDEFA2289F05007F709DFFCA959
:0C07E400F022BBFEFCF309DFFCA9F022B0
:1011AE00020E9CE493A3F8E493A34003F68001F2AD
:1011BE0008DFF48029E493A3F85407240CC8C33342
:1011CE00C4540F4420C8834004F456800146F6DF11
:1011DE00E4800B01020408102040809014B8E47ED5
:1011EE00019360BCA3FF543F30E509541FFEE49306
:1011FE00A360010ECF54C025E060A840B8E493A3CD
:10120E00FAE493A3F8E493A3C8C582C8CAC583CAF7
:10121E00F0A3C8C582C8CAC583CADFE9DEE780BEAF
:0114BE00002D
:00000001FF
