:10036D0001180001220010083F065B4F666D7D07E6
:08037D007F6F777C395E797116
:10018E00D2A9758921758C3C758AAF758DFD758BDD
:10019E00FDD28CD28ED29CC29FD29ED2AFD2ACD286
:1001AE00A7751FFE7580FEC2A7D2A675803FC2A698
:1001BE00E4F520F523FE7F20FDFB7A007924120161
:1001CE0049E5186401702AF518C2AC78197C00FD57
:1001DE00FB7A007926FE7F041200F67B007A007906
:1001EE002412000EAD077B007A007924120301D28F
:1001FE00ACE520B405CBE4F520D2A7AF1FA823EFC2
:10020E0008800123D8FDF580C2A7D2A67419252334
:10021E00F8E6FF1202C074082FF8E6F580C2A605B4
:06022E0023532303809B13
:0300230002033E97
:10033E00C0E0C0D075D000C00030981CC29885991E
:10034E0021E521640A600B74242522F8A6210522DA
:0F035E008006752200751801D000D0D0D0E03293
:03000B0002038667
:09038600758CFE758A0B0520320E
:080003008F993099FDC299228A
:080301008B448A4589468D47B3
:10030900E4FDFCC3ED95477480F86C985018AB4434
:10031900AA45A9468D828C8312011CFF1200030D88
:10032900BD00010C80DD7E007F207D00AB44AA4525
:05033900A94602014984
:1002C000AD07EDC39430400FEDD394395009ED24C0
:1002D000D0FFE434FFFE22EDC39441400FEDD394F0
:1002E000465009ED24C9FFE434FFFE22EDC39461BA
:1002F000400EEDD394665008ED24A9FFE434FFFED0
:0103000022DA
:03000000020234C5
:0C023400787FE4F6D8FD75814702027B5C
:10002600E709F608DFFA8046E709F208DFFA803EBC
:1000360088828C83E709F0A3DFFA8032E309F608A9
:10004600DFFA8078E309F208DFFA807088828C8311
:10005600E309F0A3DFFA806489828A83E0A3F608C5
:10006600DFFA805889828A83E0A3F208DFFA804C9F
:1000760080D280FA80C680D4806980F28033801076
:1000860080A680EA809A80A880DA80E280CA8033DF
:1000960089828A83ECFAE493A3C8C582C8CCC58357
:1000A600CCF0A3C8C582C8CCC583CCDFE9DEE78027
:1000B6000D89828A83E493A3F608DFF9ECFAA9F0A6
:1000C600EDFB2289828A83ECFAE0A3C8C582C8CCFC
:1000D600C583CCF0A3C8C582C8CCC583CCDFEADE15
:1000E600E880DB89828A83E493A3F208DFF980CC77
:1000F60088F0EF60010E4E60C388F0ED2402B40470
:100106000050B9F582EB2402B4040050AF23234516
:06011600822390007673C5
:10011C00BB010CE58229F582E5833AF583E0225098
:10012C0006E92582F8E622BBFE06E92582F8E222E2
:0D013C00E58229F582E5833AF583E49322FC
:10000E00E4FFFE120175600C0FEF70010E09E9702E
:05001E00F20A80EF2250
:10014900EF4E6012EF60010EEDBB010B89828A83CD
:10015900F0A3DFFCDEFA2289F05007F709DFFCA9DA
:0C016900F022BBFEFCF309DFFCA9F02231
:1002400002018EE493A3F8E493A34003F68001F245
:1002500008DFF48029E493A3F85407240CC8C333BF
:10026000C4540F4420C8834004F456800146F6DF8E
:10027000E4800B010204081020408090036DE47EAE
:10028000019360BCA3FF543F30E509541FFEE49383
:10029000A360010ECF54C025E060A840B8E493A34A
:1002A000FAE493A3F8E493A3C8C582C8CAC583CA75
:1002B000F0A3C8C582C8CAC583CADFE9DEE780BE2D
:010385000077
:10017500BB010689828A83E0225002E722BBFE0288
:09018500E32289828A83E49322BB
:00000001FF
