:1000F900D3EF9400EE940040147D7C7C00ED1D70DC
:0D010900011CED4C70F7EF1F70E61E80E347
:0101160022C6
:0C011700151215121512151215121512F2
:0101230022B9
:1000A800E4FE750D017D08EE25E0FEE4FC20A009C4
:1000B800AF040CEFC3941440F4ECC394144005E46B
:1000C800F50DFF2212011712011712011730A01C9B
:1000D8000E30A00DAF040CEFC394145004D2A080CE
:1000E800F0ECC394144005E4F50DFF22DDB9AF062A
:0100F80022E5
:10000300E4FBF9FAC2AFC2A07F14FE1200F9D2A03A
:1000130012011712011712011712011730A005D28E
:10002300AF7F002220A009AF020AEFC3941440F46B
:10003300EAC394144007D2A0D2AF7F0022E4FAD2DD
:10004300A030A009AF020AEFC3941440F4EAC394AA
:10005300144007D2A0D2AF7F0022E4FB1200A874A1
:10006300082BF8A607E50D7006D2A0D2AFFF22EB4E
:100073006404600774082BF8E629F90BBB05DDE976
:10008300B50C1DE50875F00AA485F00EF50FE50A19
:1000930075F00AA485F010F511D2A0D2AF7F01222A
:0400A300D2AF7F0059
:0100A7002236
:0D0124001200038508907FB87E0B0200F9E1
:03000000020131C9
:0C013100787FE4F6D8FD758112020124ED
:00000001FF
