:1013B600506F727420496E69742100534420434172
:1013C600524420496E6974210053656E6420436F50
:1013D6006D6D616E6420434D443020746F204D4D19
:1013E600432F534420436172640053656E64204367
:1013F6006F6D6D616E6420434D443120746F204DD6
:101406004D432F53442D436172640053442043419E
:10141600524420496E697420537563212100534458
:10142600204341524420496E666F726D6174696F44
:101436006E205265616421210050726F6475637479
:10144600204E616D653A00546F743A004D4220009B
:10145600577269746520536563746F7220537461A3
:10146600727421210053656E6420436F6D6D616E49
:101476006420434D44323420746F204D4D432F5326
:10148600442D4361726420285772697465203120A7
:10149600426C6F636B2F3531322042797465732944
:1014A600004265666F72652077726974696E672C93
:1014B60073656E642031303020636C6F636B20740B
:1014C6006F204D4D432F53442D4361726400536585
:1014D6006E64205374617274204279746520746F4F
:1014E600204D4D432F53442D43617264004E6F7758
:1014F6002073656E64207265616C2064617461207E
:10150600426F6C636B2028353132427974657329DA
:1015160020746F204D4D432F53442D436172640058
:10152600576169742074696C6C204D4D432F534488
:101536002D43617264206973206E6F742062757327
:101546007900736574204D4D435F436869705F533E
:10155600656C65637420746F206869676820284D20
:101566004D432F53442D4361726420496E76616C5E
:1015760069642900577269746520536563746F72D4
:10158600207375632121006943757246696C655342
:1015960065630046696C655374617274436C757358
:1015A600746572007961686F6F2121210040000027
:1015B6000000954900000000FF4A00000000FF58A7
:0B15C60000000000FF5100000000FFCB
:1029FB0041024F0041025500420252000041025178
:052A0B00004102000083
:1029BA00758920758DFD758BFDD28ED29CC29FD2F2
:1029CA009ED2AFD2AC7E007F407D007B017A027935
:0429DA00BB020AB87A
:082A5E008F993099FDC2992205
:0B257400900423EBF0A3EAF0A3E9F0D1
:10257F00C2AC122A11900426EEF0A3EFF0E4FDFC9A
:10258F00D3900427E09DEC6480F8900426E06480EB
:10259F0098401D900423E0FBA3E0FAA3E0F98D829D
:1025AF008C8312055DFF122A5E0DBD00010C80D0D9
:1025BF007F0A122A5E7E007F407D00900423E0FB9D
:0B25CF00A3E0FAA3E0F9120AB8D2ACB6
:0125DA0022DE
:0300230002278031
:10278000C0E0C083C082C0D075D000C00730982D93
:10279000C298900254E599F0E0FF640A6015A3E046
:1027A00024BBF582E43402F583EFF0900255E00497
:1027B000F0800A900255E4F090024F04F0D007D068
:0827C000D0D082D083D0E032BA
:062A660090024FE0FF2288
:10250A00900430EBF0A3EAF0A3E9F0E490024FF074
:10251A007B017A0279BB122A11900250EFF07B01FB
:10252A007A0279BB122A11900430E0FBA3E0FAA3E5
:10253A00E0F8AC02AD037B017A0279BB12051E7B7F
:10254A00017A0279BB122A11900430E0FBA3E0FA67
:10255A00A3E0F98F828E83E41205CF7E007F407D4F
:0A256A00007B017A0279BB020AB877
:062A6C00900250E0FF2281
:100EE0009002FB1209929002FFEBF0A3EAF0A3E953
:010EF000F011
:100EF100E4FFFEFDFC9002FBE0F8A3E0F9A3E0FAB9
:100F0100A3E0FB120224501D9002FBE0FCA3E0FDD4
:100F1100A3E0FEA3E0FF1202919002FB1209927E70
:100F2100007F0180047E007F00900307EEF0A3EFB5
:100F3100F09002FBE0FCA3E0FDA3E0FEA3E0FF12C2
:100F410002E0900305EEF0A3EFF0E4900303F0A3B9
:100F5100F0D3900306E09400900305E06480948050
:100F61004045E0FAA3E0FB7C007D0AFFAE021206D9
:100F710003ED2430FF900304E0240BF582E43403F5
:100F8100F583EFF07C007D0AAF03AE0212060390F9
:100F91000305EEF0A3EFF0900304E004F070B290CB
:100FA1000303E004F080AAE4900309F0A3F09003A6
:100FB10003E0FEA3E0FF900309E0FCA3E0FDD39F63
:100FC100EE6480F8EC648098503FE0240BF582E4F5
:100FD1003403F583E0FBC003C3EF9DFFEE9CCF24F8
:100FE100FFCF34FFFE9002FFE0FBA3E0FAA3E0F99C
:100FF1008F828E83D0E01205CF90030AE004F07057
:10100100AD900309E004F080A59002FFE0FBA3E0AE
:10101100FAA3E0F9900303E475F00112063985F0B3
:1010210082F583742E1205CFE4900309F0A3F090AA
:101031000302E0FCE41202AC9003C41209927F00A7
:101041007E007D207C41121C1DC004C005C006C06D
:10105100079002FBE0FCA3E0FDA3E0FEA3E0FF128A
:1010610002E0AC06AD07EC1202A7A804A905AA0686
:10107100AB079002FBE0FCA3E0FDA3E0FEA3E0FFD1
:10108100120029D003D002D001D00012011E120299
:10109100E0900305EEF0A3EFF0D3900306E0940097
:1010A100900305E0648094804045E0FAA3E0FB7C76
:1010B100007D0AFFAE02120603ED2430FF90030A01
:1010C100E0240BF582E43403F583EFF07C007D0A24
:1010D100AF03AE02120603900305EEF0A3EFF0900A
:1010E100030AE004F070B2900309E004F080AAE47E
:1010F100900309F0A3F0900302E0FF7E0090030942
:10110100E0FCA3E0FDC39F7480F8EC64809850413B
:10111100C3EF9DFFEE9CFE740A2FF58274033EF52A
:1011210083E0FF9002FFE0FBA3E0FAA3E0F9900364
:1011310003E475F00112063985F082F583EF12059B
:10114100CF90030AE004F070AD900309E004F08051
:10115100A59002FFE0FBA3E0FAA3E0F9900303E00E
:0B116100FEA3E0F5828E83E41205CFB0
:01116C002260
:10289400EFC4540FFEC3940A4007EE2437FDFE80B4
:1028A40004EE2430FEEE1205BDEF540FFEC3940A6D
:1028B4004007EE2437FDFF8004EE2430FF90000132
:0F28C400EF1205CF900002E41205CF7E007F01D6
:0128D30022E2
:06263D009003E512099272
:102643009003E5E0FCA3E0FDA3E0FEA3E0FFEC4D77
:102653004E4F6044E47B0AFAF9F81207D6EB2430B4
:10266300FFE43AFEE439FDE438FC9003E9120992F1
:102673007B017A0379E91225749003E5E0FCA3E07A
:10268300FDA3E0FEA3E0FFE47B0AFAF9F81207D604
:082693009003E512099280A8F2
:01269B00221C
:0C2A52007B017A0379B6122894022574E7
:0B299500E0FCA3E0FDA3E0FEA3E0FFD8
:1029A000900428120992122574900428E0FCA3E0F8
:0A29B000FDA3E0FEA3E0FF02263DB8
:10000300900390E0FEA3E02400F58274003EF583A4
:02001300E0FF0C
:0E001500900436EFF07B017A047936022574F0
:042A26007F087E00A7
:0B2A2A00EF1FAC0670011E4C70F6227E
:0F2A3500D290D293D2927BFF7A1379B602257496
:1026EA00E0FBA3E475F001120639A9F0FA120544D9
:0126FA00FFE0
:0226FB00AD0729
:1026FD00C294E4FBC374079BFFEDA807088002C3D7
:10270D0013D8FC30E004D2918002C291C2909002A5
:10271D0056E06003122A26D290900256E060031212
:07272D002A260BEBB408CDD6
:012734002282
:10290900E4FDC294FBD293C290900256E060031298
:102919002A26A293E433FFED25E02FFDD290900201
:1029290056E06003122A260BEBB408D9D294AF05FE
:01293900227B
:062735007B017A0379EF3D
:0B273B0090041EEBF0A3EAF0A3E9F00D
:10274600E4A3F0D2927FFF1226FBC292E490042209
:10275600F090041E1226EA900422E004F0E0C394EE
:102766000640EE122909122909900421E004F0EF2F
:09277600B4FF06E0C3946440EDD9
:01277F002237
:1020E00078EF7C037D017BFF7A1579B37E007F0654
:1020F00012051E7BFF7A1379C1122574122A357FCF
:10210000C87E00122A2A9002567401F0E4FA7FFF7A
:102110001226FB0AEAB40FF67BFF7A1379CF122559
:1021200074E49003EDF01227359003EEEFF0900386
:10213000EDE004F0E0B4C8037F01229003EEE0B4C8
:1021400001E47BFF7A1379F01225749003EF744158
:10215000F09003F474FFF0E49003EDF01227359053
:1021600003EEEFF09003EDE004F0E0B464037F02CF
:10217000229003EEE070E5900256F0D2927BFF7A57
:082180001479111225747F553A
:012188002234
:0B22C20090039FEBF0A3EAF0A3E9F00B
:1022CD00E49003A9F0A3F090039FE0FBA3E0FAA331
:1022DD00E0F912273BAD077C009003AAE004F070F3
:1022ED00069003A9E004F09003A9E07004A3E06454
:1022FD006470037F0422ED4C70CD122909BFFEFAE4
:10230D00E49003A7F0A3F09003A5E0FEA3E0FFC3C4
:10231D009003A8E09F9003A7E09E502712290990F3
:10232D0003A2E0FBA3E475F001120639A9F0FAEF60
:10233D001205BD9003A8E004F070CC9003A7E00453
:0D234D00F080C4122909122909D2927F00E4
:01235A002260
:0B27C8009003CAEBF0A3EAF0A3E9F0D5
:1027D30078CD7C037D017BFF7A1579B97E007F0676
:1027E30012051E9003CAE0F9A3E0FAA3E09003A246
:1027F300C9F0A3EAF0A3E9F0A3E4F0A37410F07B1B
:08280300017A0379CD1222C213
:01280B0022AA
:0B280C009003D3EBF0A3EAF0A3E9F087
:1028170078D67C037D017BFF7A1579BF7E007F0622
:1028270012051E9003D3E0F9A3E0FAA3E09003A2F8
:10283700C9F0A3EAF0A3E9F0A3E4F0A37410F07BD6
:08284700017A0379D61222C2C6
:01284F002266
:1017B5007BFF7A14792412257490033A7401F0A3FF
:1017C5007403F0A3742FF07B017A0279571227C8AE
:1017D50090025DE05403FF90033AE0FBA3E0FAA317
:1017E500E0F9900003E48FF012071EE92403F9E401
:1017F5003AFA12064F75F0001206FF90025EE0FFFE
:1018050090033AE0FBA3E0FAA3E0F9900003E48F2C
:10181500F01206B2E92403F9E43AFA12064FAEF0E3
:101825007802C333CE33CED8F9FFEE8FF01206FF20
:1018350090025FE054C0FFC413135403FF90033AB2
:10184500E0FBA3E0FAA3E0F9900003E48FF01206B1
:10185500B2900260E054039000021205CFE9240221
:10186500F9E43AFA120544FF25E01205BD9002613C
:10187500E05480FFC41313135401FF90033AE0FBB7
:10188500A3E0FAA3E0F9900002EF12058A900002A6
:1018950012055DFFC374099FFF90000312067AAE1F
:1018A500F0A807088005CEC313CE13D8F9FFEE8F35
:1018B500F01206FF7B017A02795712280C90025A22
:1018C500E0FF90033AE0FBA3E0FAA3E0F9900005FE
:1018D500EF1205CF90025BE09000061205CF900253
:1018E5005CE09000071205CF90025DE090000812C1
:1018F50005CF90025EE09000091205CF90000AE442
:101905001205CFE4900329F07BFF7A14793F122565
:101915007490033AE0FBA3E0FAA3E02405F9E43A66
:10192500FA1225747BFF7A14794D12257490033AC7
:10193500E0FBA3E0FAA3E0F912064FFDACF0E412D8
:1019450002A77B017A03792AE4900302F0120EE0E4
:0C1955001225747BFF7A1479520225746D
:10196100900363120992900367EBF0A3EAF0A3E9F5
:01197100F085
:10197200786E7C037D017BFF7A1579C57E007F0638
:1019820012051E7BFF7A147956122574C2AF90039A
:1019920063E0FCA3E0FDA3E0FEA3E0FF78091208E8
:1019A2009A900363120992900363E0FCA3E0FDA303
:1019B200E0FEA3E0E4FFFEFDEC7818120887900336
:1019C2006FEFF0900363E0FCA3E0FDA3E0FEA3E071
:1019D200E4FFFEEDE4FC7810120887900370EFF04C
:1019E200900363E0FCA3E0FDA3E0FEA3E0E4FFEECE
:1019F200E4FDFC7808120887900371EFF07BFF7A10
:101A020014796B122574E490036BF07B017A0379ED
:101A12006E12273B90036AEFF0A3E004F0E0B46497
:101A22000690036AE0FF2290036AE070DE7BFF7A91
:101A32001479A7122574E490036CF0A3F01229091B
:101A420090036DE004F0700690036CE004F0C39024
:101A5200036DE0946490036CE0940040E07BFF7AB5
:101A62001479D41225747FFE1226FB7BFF7A147937
:101A7200F3122574E490036CF0A3F090036712262E
:101A8200EA90036DE004F0700690036CE004F0C38A
:101A920090036CE0940240E37FFF1226FB7FFF126B
:101AA20026FB12290990036AEFF0541F64056005B2
:101AB200D2927F03227BFF7A15792612257412298E
:101AC20009BFFFFA7BFF7A157948122574D2927BFF
:0A1AD200FF7A15797A1225747F005F
:011ADC0022E7
:06202D009003AB120992C2
:1020330078B07C037D017BFF7A1579CB7E007F0628
:1020430012051EC2AF9003ABE0FCA3E0FDA3E0FECC
:10205300A3E0FF780912089A9003AB120992900348
:10206300ABE0FCA3E0FDA3E0FEA3E0E4FFFEFDEC98
:1020730078181208879003B1EFF09003ABE0FCA34C
:10208300E0FDA3E0FEA3E0E4FFFEEDE4FC78101224
:1020930008879003B2EFF09003ABE0FCA3E0FDA34D
:1020A300E0FEA3E0E4FFEEE4FDFC7808120887906D
:1020B30003B3EFF0E49003AFF07B017A0379B0123E
:1020C300273BAE079003AFE004F0E0B464037F0462
:0C20D30022EE70E5122909BFFEFA7F0022
:0120DF0022DE
:10235B009003FDEEF0A3EFF0A3EBF0A3EAF0A3E9FB
:01236B00F081
:10236C00C2AFE4A3F0A3F09003FDE0FEA3E0FFC333
:10237C00900403E09F900402E09E503EC3900252F2
:10238C00E0940250351229099003FFE0FBA3E47599
:10239C00F001120639A9F0FAEF1205BD900253E0D4
:1023AC0004F07006900252E004F0900403E004F094
:1023BC0070B5900402E004F080AD900252E0B402DB
:1023CC001FA3E0B4001A122909122909E490025241
:1023DC00F0A3F0900251E004F0E4900200F0D292ED
:0123EC0022CE
:1028D4009003DC120992900252E07002A3E070119E
:1028E4009003DCE0FCA3E0FDA3E0FEA3E0FF1220E4
:1028F4002D9003E0E0FEA3E0FFA3E0FBA3E0FAA336
:05290400E0F902235B75
:10293A00900252E07002A3E060047F0180027F00EF
:10294A00900200E0B401047E0180027E00EF4E6036
:10295A000F7B017A0479377F017E0012235B80D0D6
:01296A00224A
:062850009004041209923D
:1028560012293A900408E0FEA3E0FFC3900253E079
:102866009F900252E09E5025900404E0FCA3E0FDF8
:10287600A3E0FEA3E0FF9003E0E4F0A304F0A3F0DE
:0D288600A37404F0A3740AF01228D480C6D5
:012893002222
:1023ED00900383E0FBA3E0FAA3E0F990001012083C
:1023FD00ADEF24FEFBEE34FFFAED34FFF9EC34FFC4
:10240D00F890023DE0FEA3E0FFE4FCFD12074B90C7
:10241D000235E0F8A3E0F9A3E0FAA3E02FFFEA3ECE
:10242D00FEE93DFDE83CFC90038AE0F8A3E0F9A34A
:10243D00E0FAA3E02FFFEA3EFEE93DFDE83CFC7B20
:05244D00017A00790096
:10245200900433EBF0A3EAF0A3E9F09003E07402F6
:10246200F0A3E4F0A3EBF0A3EAF0A3E9F01228D47E
:0C247200900433E0FBA3E0FAA3E0F922A1
:042A720012196122B2
:061F5F00F9E43AFA7D02EC
:0E1F6500900392EBF0A3EAF0A3E9F0A3EDF0F5
:101F7300A312099E0000000090039A12099E00001C
:101F83000001E490039EF0F0900395E0FF90039E20
:101F9300E0C39F400302201E900396E0F8A3E0F9FC
:101FA300A3E0FAA3E0FBC000C001C002C00390039A
:101FB30092E0FBA3E0FAA3E0F990039EE0F58275BB
:101FC300830012055DFFE4FCFDFE90039AE0F8A395
:101FD300E0F9A3E0FAA3E0FB12074BD003D002D051
:101FE30001D000EB2FFFEA3EFEE93DFDE83CFC900B
:101FF300039612099290039AE0FCA3E0FDA3E0FE8E
:10200300A3E0FFE4FB7A01F9F812074B90039A125D
:10201300099290039EE004F0021F8B900396E0FC6C
:09202300A3E0FDA3E0FEA3E0FF31
:01202C002291
:1029DE007B017A0079007F007E007D007C0012244E
:0D29EE00527B017A0179C67D04121F65221B
:10296B0090022CE0FFE4FCFDFE12244C7B017A006C
:10297B0079207D04121F65E41202A27B427A017951
:0A298B0000783A12011E1202E02249
:0B15D100900412EBF0A3EAF0A3E9F095
:1015DC00A37401F0A37400F0A37400F01229DE9040
:1015EC000412E0FBA3E0FAA3E0F9EF1205BD122907
:1015FC006B900412E0FBA3E0FAA3E0F99000011257
:10160C0008DD900415E0FBA3E0FAA3E02424F9E440
:10161C003AFA7D04121F65900412E0FBA3E0FAA3D2
:10162C00E0F990000FEE8FF012071E900415E0FB0E
:10163C00A3E0FAA3E0242CF9E43AFA7D04121F6526
:10164C00900412E0FBA3E0FAA3E0F9900005120865
:10165C00DD900415E0FBA3E0FAA3E0240B121F5F5E
:10166C00900412E0FBA3E0FAA3E0F990000DEE8FDA
:10167C00F012071E900415E0FBA3E0FAA3E0240D82
:10168C00F9E43AFA7D01121F65900412E0FBA3E025
:10169C00FAA3E0F9900011EE8FF012071E900415DA
:1016AC00E0FBA3E0FAA3E0240E121F5FA804C00520
:1016BC00C006C007900412E0FBA3E0FAA3E0F91205
:1016CC000544FFE4FCFDFED003D002D001EB2FFF5C
:1016DC00EE3AFEED39FDEC38FC900412E0FBA3E091
:1016EC00FAA3E0F99000131208DD900415E0FBA3B7
:1016FC00E0FAA3E02411121F5F900412E0FBA3E0B8
:10170C00FAA3E0F990001F1208DD90001F1208AD3B
:10171C00E47B20FAF9F812074B7809120887900439
:10172C0012E0FBA3E0FAA3E0F990001B1208DD9095
:10173C000415E0FBA3E0FAA3E0F990001012055D9C
:10174C00FF7E00900412E0FBA3E0FAA3E0F9900006
:10175C000F12067AFDACF01205F1E4FCFD900013BB
:10176C0012092DEF2BFFEE3AFEED39FDEC38FC9013
:10177C000412E0FBA3E0FAA3E0F99000171208DDD5
:10178C0090001B1208AD90001712092DEB2FFFEAE9
:10179C003EFEE93DFDE83CFC900412E0FBA3E0FAC0
:0917AC00A3E0F99000090208DD38
:101E7100900243E0FCA3E0FDA3E0FEA3E0FF90039A
:101E8100F512099290023DE0FEA3E0FFE4FCFD9013
:101E91000243E0F8A3E0F9A3E0FAA3E02FFFEA3E52
:101EA100FEED39FDEC38FC9003F5E0F8A3E0F9A371
:101EB100E0FAA3E0FBC31208764003021F5E900321
:101EC100F5E0FCA3E0FDA3E0FEA3E0FF12244C90AB
:101ED10003F912099E00000000900239E0FEA3E020
:101EE100FFE4FCFD9003F9E0F8A3E0F9A3E0FAA315
:101EF100E0FBC312087650439003FBE0FEA3E0240D
:101F010000F974003EFA7B01120544FF600C64E5A0
:101F11006008EF640F60031225749003F9E0FCA3DD
:101F2100E0FDA3E0FEA3E02420FFE43EFEE43DFD4E
:101F3100E43CFC9003F9120992809E9003F5E0FCC9
:101F4100A3E0FDA3E0FEA3E02401FFE43EFEE43DA7
:0D1F5100FDE43CFC9003F5120992021E8590
:011F5E002260
:0B269C00900418EBF0A3EAF0A3E9F0B3
:1026A700E4FF90041BE0FBA3E0FAA3E0F98F827537
:1026B700830012055DFE900418E0FBA3E0FAA3E097
:1026C700F98F82758300EE1205CF0FEFB40BD3900D
:1026D7000418E0FBA3E0FAA3E0F98F82758300E416
:0326E7000205CF1A
:0B1ADD00900374EBF0A3EAF0A3E9F023
:101AE800900243E0FCA3E0FDA3E0FEA3E0FF900327
:101AF8007B120992E4FFFE900374E0FBA3E0FAA3D3
:101B0800E0F98E8275830012055DFD6007B45C0103
:101B18000F0E80E3EFB4010F90037BE0FCA3E0FD20
:101B2800A3E0FEA3E0FF2290037BE0FCA3E0FDA37B
:101B3800E0FEA3E0FF90037712099290023DE0FED9
:101B4800A3E0FFE4FCFD900243E0F8A3E0F9A3E082
:101B5800FAA3E02FFFEA3EFEED39FDEC38FC9003D6
:101B680077E0F8A3E0F9A3E0FAA3E0FBC312087654
:101B78004003021C1C900377E0FCA3E0FDA3E0FEF9
:101B8800A3E0FF12244C90037F12099E000000007E
:101B9800900239E0FEA3E0FFE4FCFD90037FE0F84B
:101BA800A3E0F9A3E0FAA3E0FBC312087650439040
:101BB8000381E0FEA3E02400F974003EFA7B0112E1
:101BC8000544FF600C64E56008EF640F60031225AC
:101BD8007490037FE0FCA3E0FDA3E0FEA3E02420D3
:101BE800FFE43EFEE43DFDE43CFC90037F120992D5
:101BF800809E900377E0FCA3E0FDA3E0FEA3E02431
:101C080001FFE43EFEE43DFDE43CFC90037712094D
:041C180092021B43D6
:011C1C0022A5
:0B218900900351EBF0A3EAF0A3E9F093
:102194007F08E4FE7E0B9003577420F0A3DEFCE47A
:1021A400900362F0FE900351E0FBA3E0FAA3E0F990
:1021B4008E8275830012055DFD642E600F74572EA8
:1021C400F582E43403F583EDF00E80D90E900351CB
:1021D400E0FBA3E0FAA3E0F98E8275830012055DAB
:1021E400FD6012AC070F74572CF582E43403F583B9
:1021F400EDF00E80D8E4FE900354E0FBA3E0FAA3D4
:10220400E0F98E8275830012055DFF74572EF58206
:10221400E43403F583E06F60037F00220EEEB40B19
:03222400D67F0161
:012227002294
:0625DB0090040B120992AE
:1025E100E47B80FAF9F890040BE0FCA3E0FDA3E0A2
:1025F100FEA3E0FF1207D690023F12243790040F8A
:102601007401F0A37400F0A37400F090040BE0FCDB
:10261100A3E0FDA3E0FEA3E0547FFFE4FEFDFC7B0D
:1026210004FAF9F812074B90040FE0FBA3E0FAA3B8
:0B263100E02FF9EA3EFA7D04121F655D
:01263C00227B
:0B116D0090033DEBF0A3EAF0A3E9F0D3
:10117800E4A3F0122A11E4FEEEC39F502390033D2E
:10118800E0FBA3E0FAA3E0F98E8275830012055D07
:10119800B45C0A900340E004F0EE04A3F00E80D89B
:1011A80090033DE0FBA3E0FAA3E0F9121ADD9003F7
:1011B800461209927BFF7A15798D9003461229957C
:1011C800900346E0FCA3E0FDA3E0FEA3E0FF90034C
:1011D8004212099290023DE0FEA3E0FFE4FCFD907C
:1011E8000346E0F8A3E0F9A3E0FAA3E02FFFEA3E04
:1011F800FEED39FDEC38FC900342E0F8A3E0F9A3DA
:10120800E0FAA3E0FBC312087640030213B590038B
:1012180042E0FCA3E0FDA3E0FEA3E0FF12244C9013
:10122800034A12099E00000000900239E0FEA3E084
:10123800FFE4FCFD90034AE0F8A3E0F9A3E0FAA379
:10124800E0FBC3120876400302139390034CE0FEC0
:10125800A3E02400F974003EFAA37401F0A3EAF0B5
:10126800A3E9F090033DE0FBA3E0FAA3E0F99003C3
:1012780041E0FF7E00E92FF9EE3AFAC002C0019082
:10128800034EE0F9A3E0FAA3E0900354C9F0A3EAFF
:10129800F0A3E9F0D001D002122189EF7003021304
:1012A8007190034EE0FBA3E0FAA3E0241CF9E43AB2
:1012B800FA7D04121F6590021912099290033DE00D
:1012C800FBA3E0FAA3E0F9900341E0FF7E00E92FD9
:1012D800F9EE3AFA78017C027D01120A9B90034EDE
:1012E800E0FBA3E0FAA3E02414121F5FE4FBFA7901
:1012F80001F812074BC004C005C006C00790034E92
:10130800E0FBA3E0FAA3E0241A121F5FD003D00287
:10131800D001D000EF2BFFEE3AFEED39FDEC38FCA2
:1013280090020D12099290020DE0FCA3E0FDA3E0EB
:10133800FEA3E0FFA3120992900211E0FCA3E0FDD6
:10134800A3E0FEA3E0FF1225DB900215120992E448
:1013580090022AF0A3F07BFF7A15799990020D127A
:1013680029957B017A0279012290034AE0FCA3E0E7
:10137800FDA3E0FEA3E02420FFE43EFEE43DFDE4FF
:101388003CFC90034A120992021231900342E0FC9D
:10139800A3E0FDA3E0FEA3E02401FFE43EFEE43D5C
:0D13A800FDE43CFC9003421209920211DCAE
:0113B5002215
:0B0BA500900383EBF0A3EAF0A3E9F05B
:100BB00090002912067AFFAEF0E4FCFDC004C005E7
:100BC000C006C007900383E0FBA3E0FAA3E0F9901E
:100BD00000181208ADD003D002D001D000C3EF9BA3
:100BE000FFEE9AFEED99FDEC98FC900386120992B7
:100BF00090038A12099E0000000090038E12099E45
:100C000000000000900383E0FBA3E0FAA3E0F9906A
:100C100000141208AD74FFFBFAF9780FC3120876BE
:100C20007003020D5390038A12099E000000009089
:100C3000023DE0FEA3E0FFE4FCFD90038AE0F8A3A0
:100C4000E0F9A3E0FAA3E0FBC31208764003020D2B
:100C50001F1223ED900239E0FEA3E0FF900383E032
:100C6000FBA3E0FAA3E0F9900029EE8FF01206B2A0
:100C700090002912067AFFAEF0E4FCFDC004C00526
:100C8000C006C007900383E0FBA3E0FAA3E0F9905D
:100C900000181208ADD003D002D001D000C3EF9BE2
:100CA000FFEE9AFEED99FDEC98FC900386120992F6
:100CB00090038E12099E00000000900239E0FEA30E
:100CC000E0FFE4FCFD90038EE0F8A3E0F9A3E0FA76
:100CD000A3E0FBC3120876502412000390038EE0B9
:100CE000FCA3E0FDA3E0FEA3E02401FFE43EFEE45C
:100CF0003DFDE43CFC90038E12099280BD90038A76
:100D0000E0FCA3E0FDA3E0FEA3E02401FFE43EFE3F
:100D1000E43DFDE43CFC90038A120992020C2F9002
:100D20000383E0FBA3E0FAA3E0F99000141208ADFE
:100D30009000101208DD9000101208AD1225DB9013
:100D40000383E0FBA3E0FAA3E0F99000141208DDAE
:100D5000020C0490038A12099E00000000900239E0
:100D6000E0FEA3E0FFE4FCFD900386E0F8A3E0F9D9
:100D7000A3E0FAA3E0FBC31208765003020E8C90A6
:100D80000383E0FBA3E0FAA3E0F99000101208ADA2
:100D9000EF24FEFBEE34FFFAED34FFF9EC34FFF8FC
:100DA00090023DE0FEA3E0FFE4FCFD12074B900241
:100DB00035E0F8A3E0F9A3E0FAA3E02FFFEA3EFE56
:100DC000E93DFDE83CFCC004C005C006C007900337
:100DD0008A12095DD003D002D001D000EB12244169
:100DE000900239E0FEA3E0FF900383E0FBA3E0FA6A
:100DF000A3E0F9900029EE8FF01206B290002912BC
:100E0000067AFFAEF0E4FCFDC004C005C006C007D2
:100E1000900383E0FBA3E0FAA3E0F9900018120826
:100E2000ADD003D002D001D000C3EF9BFFEE9AFEFD
:100E3000ED99FDEC98FC90038612099290038E12B6
:100E4000099E00000000900239E0FEA3E0FFE4FCF0
:100E5000FD90038EE0F8A3E0F9A3E0FAA3E0FBC362
:100E60001208764003020D5D12000390038EE0FC31
:100E7000A3E0FDA3E0FEA3E02401FFE43EFEE43D89
:100E8000FDE43CFC90038E12099280BA1223ED908F
:100E9000038E12099E00000000900386E0FCA3E090
:100EA000FDA3E0FEA3E0FF90038EE0F8A3E0F9A32A
:100EB000E0FAA3E0FBC3120876502412000390036B
:100EC0008EE0FCA3E0FDA3E0FEA3E02401FFE43EEE
:0F0ED000FEE43DFDE43CFC90038E12099280BAD3
:010EDF0022F0
:0E2A44001229BA7BFF7A1579AA12257480F543
:1000260002034CE86480F8E933E83360110460F0B9
:10003600ED33EC337009E8FCE9FDEAFEEBFF220440
:1000460060DED3EB9FEA9EE99DE8C2E78CF0C2F73B
:1000560095F0400CE8CCF8E9CDF9EACEFAEBCFFB07
:1000660012031785D0F05804700320D5B3E8047046
:10007600075002B2D502035692D5EC0460F7E4CCE1
:10008600C0E0C398F8603B94186008400DD0E0FBD0
:1000960002032EE4FBFAC9FC8028E830E406E4C932
:1000A600FBE4CAFCE830E305E4C9CACBFCE8540724
:1000B6006010F8C3E913F9EA13FAEB13FBEC13FC2F
:1000C600D8F130F52FC3E49CFCEF9BFFEE9AFEEDD2
:1000D60099FDD0E0FBEF4E4D4C701222DB0302037C
:1000E60053EC2CFCEF33FFEE33FEED33FDED30E742
:1000F600EB02032EEF2BFFEE3AFEED39FDD0E0FBCF
:1001060050130BBB0003020356ED13FDEE13FEEF77
:0801160013FFEC13FC02032EA1
:10011E00EC4D6011E8497017ED33EC3304600DE4DB
:10012E00FCFFFEFD22E933E8330470F802034C12A3
:10013E00031758046009E4CC2481500628500902A4
:10014E000356284003020353C0E0EB4A7044B980C3
:10015E0006D0E0FB020342EF4E701CBD8008EBFFA1
:10016E00EAFEE9FD80EBE98DF0A4FEE5F002020760
:10017E00E9CDF9EAFEEBFFEF89F0A4FCE5F0CE89BC
:10018E00F0A42EFFE435F0CD89F0A42DFEE435F079
:10019E008067EF4E7005BD80D780C3EF8BF0A4ACA7
:1001AE00F0EE8BF0A42CFCE435F0F8EF8AF0A42CE2
:1001BE00E5F038FCE433CB8DF0A42CFCE5F03BF8F5
:1001CE00EE8AF0A42CFCE5F038F8E433CF89F0A4E5
:1001DE002CFCE5F038CF3400CE89F0A42FFFE5F0EB
:1001EE003EFEE433C98DF0A42EFEE5F039CD8AF043
:1001FE00A42FFFE5F03EFEE43DFD33D0E0FB5007BB
:10020E000BBB000F020356EC2CFCEF33FFEE33FE5C
:06021E00ED33FD02032E8A
:1002240074F8CC6480CCC86480C8F582046043C38D
:10023400EB9FF5F0EA9E42F0E99D42F0E89C45F020
:1002440060305018E5825FFFE582F42B5582FB5045
:10025400210ABA001D09B90019088016E5825BFB62
:10026400E582F42F5582FF50090EBE00050DBD0036
:10027400010CC3EB9FF5F0EA9E42F0E99D42F0E8E1
:0D0284009C45F06007CC4820E701B3EC2258
:10029100ED33EC33600A047003BD8004ECB2E7FC7B
:0102A100223A
:1002A20075F020800E75F010800575F0087D007ED7
:1002B200007F003392D530D503120868EC3340102A
:1002C200EF33FFEE33FEED33FDEC33FCD5F0ED22E0
:0E02D200E5F0247EA2D513CC92E7CDCEFF221C
:1002E000EDD2E7CD33EC3392D524814006E4FFFE16
:1002F000FDFC22FCE4CFCECDCC24E0501174FF8075
:10030000EDC3CC13CCCD13CDCE13CECF13CF047011
:07031000F030D5DE020868A1
:101C1D009003C0120992E4FFFEFDFC9003C0E0F8B2
:101C2D00A3E0F9A3E0FAA3E0FB1202247038FFFE53
:101C3D00FDFC9003C4E0F8A3E0F9A3E0FAA3E0FBF8
:101C4D0012022460084006E4FFFEFDFC229003C44E
:101C5D0012099EFFFFFFFF9003C4E0FCA3E0FDA36C
:101C6D00E0FEA3E0FF22E49003C8F0A3F0FFFEFD29
:101C7D00FC9003C0E0F8A3E0F9A3E0FAA3E0FB12A7
:101C8D000224505F9003C4E0FCA3E0FDA3E0FEA39B
:101C9D00E0FF1202E09003C8EEF0A3EFF0FDCCEEF2
:101CAD00CCE41202A7C8ECC8C9EDC9CAEECACBEF85
:101CBD00CB9003C4E0FCA3E0FDA3E0FEA3E0FF1284
:101CCD000029E4FBFAF9F812022470819003C0E0B8
:101CDD00FCA3E0FDA3E0FEA3E0FF1202919003C080
:101CED001209929003C0E0FCA3E0FDA3E0FEA3E087
:101CFD00FF121D7C9003C4E0F8A3E0F9A3E0FAA362
:101D0D00E0FB12011E1222609003C412099290038F
:101D1D00C9E030E0179003C4E0FCA3E0FDA3E0FEB2
:101D2D00A3E0FF1202919003C41209929003C4E044
:0B1D3D00FCA3E0FDA3E0FEA3E0FF22FA
:10031700E9D2E7C933E833F892D5EDD2E7CD33EC2C
:0703270033FC5002B2D522A5
:10032E00EC30E7100FBF000C0EBE00080DBD000430
:10033E000BEB6014A2D5EB13FCED92E7FD2274FFDC
:10034E00FCFDFEFF22E480F8A2D574FF13FC7D8035
:03035E00E480EF49
:1022280033DA929E35B16011377FE5FE3921848912
:102238003AAEC3FF3C1D955B3D6358473E75FDF0C4
:102248003F3172183F800000C2D502035602034C8A
:10225800BD80FA50F3020353ED33EC330460F17B95
:102268003B7AAA79B8783F12011EED33EC3392D548
:10227800247B5011A2D570DB500BED448024045010
:1022880004A2D580CEEFFBEEFAEDF9ECF81202E0ED
:10229800EFF582F404FC1202AC12002DC0829022E9
:1022A800287409120410ED33CC33D0F092D525F000
:0A22B800A2D57001C313CC13FD2260
:101D48003E9248DA3ECCCCCD3F2AAAAB40000000F8
:101D58003F8000003F9837F03FB504F33FD744FC7D
:101D68003E3172173EB172173F0515913EDE5BD9C1
:101D7800D2008002C200EDD2E7F8CD33EC33047014
:101D88000BBD800592D502035602034C40FBD314C9
:101D980060F2F5F07C3FEE7A00C39496C8948B40CD
:101DA800230AC89469C8941A401A0AC89468C8943F
:101DB8001F40110AC8945AC89425400805F07A00B3
:101DC800CDC2E7CDC0F090042C120992EA2323C0BB
:101DD800E02458F582E4341DF58312091D12002D04
:101DE800ECC0E0EDC0E0EEC0E0EFC0E01209019009
:101DF800042C120911120029D0E0FBD0E0FAD0E03F
:101E0800F9D0E0B2E7F812036490042C120992901A
:101E18001D48740312040190042C12091112011EAA
:101E2800D0E0600F2464F582E4341DF58312091DA7
:101E380012002D90042C120992D0E0C3947FFDE487
:101E48009400FC1202A77B187A727931783F12014C
:101E58001E90042C12091112002D30000B7BD97A28
:091E68005B79DE783E12011E22B6
:10036100020356EC5D046005E85904700302034C76
:10037100120317580460F6EC4860F2EC7004FDFEBD
:10038100FF22C860DB2481C85009C398600250066F
:100391000203539850CAF582E9294B4A7005AB8292
:1003A10002034275F0007C1A7880C3EF9BEE9AED50
:1003B10099400DC3EF9BFFEE9AFEED99FDE842F0E7
:1003C100DC23ACF0D0E0FFD0E0FED0E0FDAB82203A
:1003D100E7101BEB60BAEC2CFCEF33FFEE33FEEDC4
:1003E10033FD02032EE803F830E705C0F075F00095
:1003F100EF2FFFEE33FEED33FD40B830E7C280AAA8
:10040100C0E0EFFBEEFAEDF9ECF812011ED0E0F5D9
:10041100F0EFFBEEFAEDF9ECF8120901A3A3A3A3A7
:10042100E8C0E0E9C0E0EAC0E0EBC0E0C0F01201E2
:100431001E12091DA3A3A3A312002DD0F0D0E0FB2F
:0D044100D0E0FAD0E0F9D0E0F8D5F0D422F8
:0300000002247E59
:0C247E00787FE4F6D8FD7581200224C5AB
:10044E00E709F608DFFA8046E709F208DFFA803E90
:10045E0088828C83E709F0A3DFFA8032E309F6087D
:10046E00DFFA8078E309F208DFFA807088828C83E5
:10047E00E309F0A3DFFA806489828A83E0A3F60899
:10048E00DFFA805889828A83E0A3F208DFFA804C73
:10049E0080D280FA80C680D4806980F2803380104A
:1004AE0080A680EA809A80A880DA80E280CA8033B3
:1004BE0089828A83ECFAE493A3C8C582C8CCC5832B
:1004CE00CCF0A3C8C582C8CCC583CCDFE9DEE780FB
:1004DE000D89828A83E493A3F608DFF9ECFAA9F07A
:1004EE00EDFB2289828A83ECFAE0A3C8C582C8CCD0
:1004FE00C583CCF0A3C8C582C8CCC583CCDFEADEE9
:10050E00E880DB89828A83E493A3F208DFF980CC4A
:10051E0088F0EF60010E4E60C388F0ED2402B40443
:10052E000050B9F582EB2402B4040050AF232345EA
:06053E00822390049E736D
:10054400BB010689828A83E0225002E722BBFE02B5
:09055400E32289828A83E49322E8
:10055D00BB010CE58229F582E5833AF583E0225053
:10056D0006E92582F8E622BBFE06E92582F8E2229D
:0D057D00E58229F582E5833AF583E49322B7
:10058A00BB010FF8E58229F582E5833AF583E02875
:10059A00F0225009C58229F8E58226F622BBFE0917
:1005AA00C58229F8E22582F222F8EA2583F583E951
:0305BA0093282261
:1005BD00BB010689828A83F0225002F722BBFE011D
:0205CD00F32217
:1005CF00F8BB010DE58229F582E5833AF583E8F062
:1005DF00225006E92582C8F622BBFE05E92582C80E
:0205EF00F222F6
:1005F100EF8DF0A4A8F0CF8CF0A428CE8DF0A42E1E
:02060100FE22D7
:10060300C2D5EC30E709B2D5E4C39DFDE49CFCEE12
:1006130030E715B2D5E4C39FFFE49EFE120AE4C39C
:10062300E49DFDE49CFC8003120AE430D507C3E497
:060633009FFFE49EFE2281
:10063900A3F8E0C5F025F0F0E58215827002158374
:06064900E0C838F0E822D1
:10064F00BB010A89828A83E0F5F0A3E02250068776
:10065F00F009E71922BBFE07E3F5F009E319228938
:0B066F00828A83E493F5F0740193226B
:10067A00BB0110E58229F582E5833AF583E0F5F0BE
:10068A00A3E0225009E92582F886F008E622BBFE9B
:10069A000AE92582F8E2F5F008E222E5832AF583E1
:0806AA00E993F5F0A3E99322A6
:1006B200BB010DC58229C582C5833AC583020B39A8
:1006C2005011C58229F808E5F026F618F5F0E58202
:1006D20036F622BBFE11C58229F808E225F0F5F0B4
:1006E200F218E23582F222F8E58229F582E5832AC0
:0D06F200F58374019325F0F5F0E4933822B0
:1006FF00BB010A89828A83F0E5F0A3F0225006F746
:0F070F0009A7F01922BBFE06F3E5F009F3192242
:10071E00F8BB0111E58229F582E5833AF583E8F00D
:10072E00E5F0A3F0225009E92582C8F608A6F022CA
:0D073E00BBFE09E92582C8F2E5F008F222B1
:10074B00E88FF0A4CC8BF0A42CFCE98EF0A42CFC4D
:10075B008AF0EDA42CFCEA8EF0A4CDA8F08BF0A4CB
:10076B002DCC3825F0FDE98FF0A42CCD35F0FCEB2A
:10077B008EF0A4FEA9F0EB8FF0A4CFC5F02ECD39EF
:0F078B00FEE43CFCEAA42DCE35F0FDE43CFC225C
:10079A0075F008758200EF2FFFEE33FECD33CDCC16
:1007AA0033CCC58233C5829BED9AEC99E582984099
:1007BA000CF582EE9BFEED9AFDEC99FC0FD5F0D676
:1007CA00E4CEFBE4CDFAE4CCF9A88222B800C1B9A0
:1007DA000059BA002DEC8BF084CFCECDFCE5F0CBDE
:1007EA00F97818EF2FFFEE33FEED33FDEC33FCEB17
:1007FA0033FB10D703994004EB99FB0FD8E5E4F9D2
:10080A00FA227818EF2FFFEE33FEED33FDEC33FCBE
:10081A00C933C910D7059BE99A4007EC9BFCE99AB2
:10082A00F90FD8E0E4C9FAE4CCFB2275F010EF2FF7
:10083A00FFEE33FEED33FDCC33CCC833C810D707F7
:10084A009BEC9AE899400AED9BFDEC9AFCE899F832
:0E085A000FD5F0DAE4CDFBE4CCFAE4C8F922C5
:0E086800C3E49FFFE49EFEE49DFDE49CFC22A1
:10087600EB9FF5F0EA9E42F0E99D42F0E89C45F0D8
:01088600224F
:10088700E8600FECC313FCED13FDEE13FEEF13FF4F
:03089700D8F12273
:10089A00E8600FEFC333FFEE33FEED33FDEC33FCBC
:0308AA00D8F12260
:1008AD00BB010DE58229F582E5833AF583020B5BE9
:1008BD005007E92582F8020B4FBBFE07E92582F8A8
:1008CD00020B67E58229F582E5833AF5830209017A
:1008DD00BB010DE58229F582E5833AF58302099284
:1008ED005007E92582F8020B8DBBFE07E92582F83A
:0408FD00020B99222F
:10090100E493FC740193FD740293FE740393FF223C
:0C091100E0F8A3E0F9A3E0FAA3E0FB2269
:10091D00E493F8740193F9740293FA740393FB2230
:10092D00BB010DE58229F582E5833AF583020911B4
:10093D005007E92582F8020B73BBFE07E92582F803
:10094D00020B80E58229F582E5833AF58302091DC4
:10095D007401FF3395E0FEFDFCA3A3A3E0CF2FF0C0
:10096D00E582158270021583E0CE3EF0E582158298
:10097D0070021583E0CD3DF0E5821582700215837E
:05098D00E0CC3CF0226B
:0C099200ECF0A3EDF0A3EEF0A3EFF022D8
:10099E00A8828583F0D083D0821209B51209B512D0
:1009AE0009B51209B5E473E493A3C583C5F0C583F5
:1009BE00C8C582C8F0A3C583C5F0C583C8C582C8A3
:0109CE002206
:1009CF00E709F60870FA8046E709F20870FA803EE8
:1009DF0088828C83E709F0A370FA807EE309F6081A
:1009EF0070FA8076E309F20870FA806E88828C8341
:1009FF00E309F0A370FA806289828A83E0A3F60884
:100A0F0070FA805689828A83E0A3F20870FA804ACE
:100A1F0080D280FA80C680D4806580F280318010C9
:100A2F0080A680EA809A80A880DA80E280CA80312E
:100A3F0089828A83ECFAE493A3C8C582C8CCC583A4
:100A4F00CCF0A3C8C582C8CCC583CC70E9800D8912
:100A5F00828A83E493A3F60870F9ECFAA9F0EDFB10
:100A6F002289828A83ECFAE0A3C8C582C8CCC583E9
:100A7F00CCF0A3C8C582C8CCC583CC70EA80DD8911
:100A8F00828A83E493A3F20870F980CE88F0ED2474
:100A9F0002B4040050C4F582EB2402B4040050BA2F
:090AAF002323458223900A1F73E2
:102A1100E4FFFE120544600C0FEF70010E09E9702E
:052A2100F20A80EF2223
:100AB800EF4E6012EF60010EEDBB010B89828A8355
:100AC800F0A3DFFCDEFA2289F05007F709DFFCA962
:0C0AD800F022BBFEFCF309DFFCA9F022B9
:10248A00022A44E493A3F8E493A34003F68001F2FA
:10249A0008DFF48029E493A3F85407240CC8C33353
:1024AA00C4540F4420C8834004F456800146F6DF22
:1024BA00E4800B01020408102040809029FBE47E8E
:1024CA00019360BCA3FF543F30E509541FFEE49317
:1024DA00A360010ECF54C025E060A840B8E493A3DE
:1024EA00FAE493A3F8E493A3C8C582C8CAC583CA09
:1024FA00F0A3C8C582C8CAC583CADFE9DEE780BEC1
:012A100000C5
:100AE400BC000BBE0029EF8DF084FFADF022E4CCF6
:100AF400F875F008EF2FFFEE33FEEC33FCEE9DECBF
:100B0400984005FCEE9DFE0FD5F0E9E4CEFD22ED04
:100B1400F8F5F0EE8420D21CFEADF075F008EF2F4E
:100B2400FFED33FD4007985006D5F0F222C398FD3F
:050B34000FD5F0EA22DC
:100B3900C5F0F8A3E028F0C5F0F8E5821582700247
:060B49001583E038F022E4
:0C0B4F00E6FC08E6FD08E6FE08E6FF22D2
:0C0B5B00E0FCA3E0FDA3E0FEA3E0FF220D
:0C0B6700E2FC08E2FD08E2FE08E2FF22CA
:0D0B7300E6FB08E6F908E6FA08E6CBF822F2
:0D0B8000E2FB08E2F908E2FA08E2CBF822F5
:0C0B8D00ECF608EDF608EEF608EFF62294
:0C0B9900ECF208EDF208EEF208EFF22298
:00000001FF
