:0612860025662C25660020
:06127F00012500012E0014
:10123500758920758DFD758BFDD28ED29CC29FD28E
:101245009ED2AFD2AC7E007F207D007B007A0079F4
:04125500330207C495
:081277008F993099FDC2992204
:061165008B538A548955EA
:10116B00C2AC1212598E568F57E4FDFCC3ED955746
:10117B00E5566480F8EC6480985018AB53AA54A9D8
:10118B00558D828C831206FFFF1212770DBD000165
:10119B000C80D97F0A1212777E007F207D00AB5323
:0911AB00AA54A9551207C4D2ACE4
:0111B4002218
:030023000211B512
:1011B500C0E0C0D075D000C00030981CC298859999
:1011C5002CE52C640A600B7433252EF8A62C052E0D
:0F11D5008006752E00752501D000D0D0D0E032F5
:03128C00AF252269
:101114008B088A09890AE4F525FB7A0079331212CF
:10112400598F2A7B007A007933121259A80AAC0924
:10113400AD087B007A0079331206C07B007A00790F
:1011440033121259AB08AA09A90A8F828E83E412BA
:10115400073E7E007F207D007B007A007933020702
:01116400C4C6
:03128F00AF2A2261
:100D9400121235D2A07F057E00120003C2A07F1E6E
:100DA4007E00120003D2A012126E12126E12126E84
:100DB40030A003020E8A30A0FD20A0FDAF2B12113B
:100DC400E4AF2D1211E4AF231211E4AF241211E4A5
:100DD400AF221211E4C2A07F017E00120003D2A050
:100DE400852B90853257853156853055852F54AFE4
:100DF4002D121092AB32AA31A930A82FC000C00125
:100E0400C002C003AC2BE41201C8D003D002D0014D
:100E1400D00012002D8F328E318D308C2F852957C2
:100E2400852856852755852654AF24121092AB2960
:100E3400AA28A927A826C000C001C002C003AC2369
:100E4400E41201C8D003D002D001D00012002D8FCB
:100E5400298E288D278C267556FF7557127558864E
:100E640085325C85315B85305A852F598F608E5F62
:100E74008D5E8C5D7B017A00790012084C7B017ACF
:0D0E84000079001211657FB87E0B0200039B
:10000300D3EF9400EE6480948040147D6E7C00ED09
:0F0013001D70011CED4C70F7EF1F70E41E80E1B3
:0100220022BB
:08126E007F0A1F1F1F1F1F1F35
:011276002255
:0211E400AE0754
:1011E600E4FEFD30A0FD12126E12126E12126EC2D5
:1011F6000030A002D20020A0FDEE25E0FEA200E411
:071206003342060DBD08DCB8
:01120D0022BE
:021092008F537A
:10109400755980E4F557F556F555F554F558AF589C
:1010A400E559A807088002C313D8FC5553D394000C
:1010B4004054AB57AA56A955A854C000C001C00259
:1010C400C003E5582401FDE433FCE41201C38F613D
:1010D4008E608D5F8C5E7F007E007D007C40120EF2
:1010E40091A804A905AA06AB07E4FFFE7D807C3F16
:1010F400120121D003D002D001D00012002D8F574D
:0F1104008E568D558C540558E558C39408408F6E
:0111130022B9
:10002600020231E86480F8E933E83360110460F0D5
:10003600ED33EC337009E8FCE9FDEAFEEBFF220440
:1000460060DED3EB9FEA9EE99DE8C2E78CF0C2F73B
:1000560095F0400CE8CCF8E9CDF9EACEFAEBCFFB07
:100066001201FC85D0F05804700320D5B3E8047063
:10007600075002B2D502023B92D5EC0460F7E4CCFD
:10008600C0E0C398F8603B94186008400DD0E0FBD0
:10009600020213E4FBFAC9FC8028E830E406E4C94E
:1000A600FBE4CAFCE830E305E4C9CACBFCE8540724
:1000B6006010F8C3E913F9EA13FAEB13FBEC13FC2F
:1000C600D8F130F52FC3E49CFCEF9BFFEE9AFEEDD2
:1000D60099FDD0E0FBEF4E4D4C701222DB0302027D
:1000E60038EC2CFCEF33FFEE33FEED33FDED30E75D
:1000F600EB020213EF2BFFEE3AFEED39FDD0E0FBEB
:1001060050130BBB000302023BED13FDEE13FEEF93
:0801160013FFEC13FC020213BD
:10011E0002023BEC5D046005E859047003020231F3
:10012E001201FC580460F6EC4860F2EC7004FDFE1F
:10013E00FF22C860DB2481C85009C39860025006B4
:10014E000202389850CAF582E9294B4A7005AB82F3
:10015E0002022775F0007C1A7880C3EF9BEE9AEDB1
:10016E0099400DC3EF9BFFEE9AFEED99FDE842F02C
:10017E00DC23ACF0D0E0FFD0E0FED0E0FDAB82207F
:10018E00E7101BEB60BAEC2CFCEF33FFEE33FEED09
:10019E0033FD020213E803F830E705C0F075F000F6
:1001AE00EF2FFFEE33FEED33FD40B830E7C280AAED
:1001BE0075F020800E75F010800575F0087D007EBC
:1001CE00007F003392D530D503120760EC33401018
:1001DE00EF33FFEE33FEED33FDEC33FCD5F0ED22C5
:0E01EE00E5F0247EA2D513CC92E7CDCEFF2201
:1007F000E56A2456F8E6056A2278533007027856EF
:10080000E475F00112078E0206E62000EB7F2ED27F
:10081000008018EF540F2490D43440D4FF30040BE0
:10082000EF24BFB41A0050032461FFE56B6002158A
:100830006B056EE56E7002056D30070D7853E4753B
:10084000F00112078EEF02072C02120E7403D2077A
:100850008003E4C207F56A8B538A548955E4F56B2B
:10086000F56DF56EE56B60077F2012082B80F5753E
:100870006CFFC201C200C202C203C205C206C208A6
:100880001207F9FF700D3007057F0012083CAF6EAC
:10089000AE6D22B4255FC2D5C2041207F9FF24D081
:1008A000B40A00501A75F00A786B30D50508B6FF07
:1008B0000106C6A426F620D5047002D20380D924EE
:1008C000CFB41A00EF5004C2E5D204020B29D201C2
:1008D00080C6D20080C0D20280BCD2D580BAD205F8
:1008E00080B47F2012082B2002077401B56B0040F2
:1008F000F11207F0FF12082B020864D208D206801A
:10090000951207F0FB1207F0FA1207F0F94A4B7044
:100910000679207A0C7BFF20022EE56B602A7E0090
:100920008E827583001206FF60060EEE656C70F015
:10093000C2D5EBC0E0EAC0E0E9C0E0EE120B89D01E
:10094000E0F9D0E0FAD0E0FB1206E6FF60AAEBC0C7
:10095000E0EAC0E0E9C0E012082BD0E02401F9D0C1
:10096000E03400FAD0E0FBE56C0460DCD56CD980A3
:1009700087D20280A2120B6C60F7E56C7001041242
:100980000401A96C600DE56C600914F56C120C1380
:10099000EF60F3EA30E702F404C3995077EAF425F4
:1009A0006C0430E701E404F56C800D120B6C60C13F
:1009B000EA056C256C120401EA7869F630E701E477
:1009C000256C04D56C0420050114120B89E4C0E0E9
:1009D000120C137869E6601320E70714F612081367
:1009E000802204F6D0E014C0E07F00120813E56C0A
:1009F000600712080A156C800B30050312080AD034
:100A0000E0020864D0E00480C5120B6C60A0E56CC5
:100A1000041204017869EAF6E56C2005026001041D
:050A20002404120B8903
:100A250074FF04C0E0120C13120813E56C200502D4
:100A3500600312080AD0E0B56CE87F4512081D78FE
:100A450069E67F2B30E7047F2DF404C0E012082B04
:100A5500D0E075F00A84C0F0120814D0E012081432
:100A6500020864791080027908C206C2088008D29B
:100A7500D5790A8004790AC2D5E56C047002F56C53
:100A8500E4FAFDFEFF1207F0FC7B082001131207B4
:100A9500F0FD7B1030000A1207F0FE1207F0FF7B15
:100AA50020EC3382D592D55013C3E43000069FFF66
:100AB500E49EFEE42001039DFDE49CFCE4CBF8C22A
:100AC50001EC700CCFCECDCCE824F8F870F380178C
:100AD500C3EF33FFEE33FEED33FDEC33FCEB33FBBD
:100AE500994002FB0FD8E9EB300105F8D0E0C44886
:100AF500B201C0E00AEC4D4E4F78207B0070C2EA8F
:100B0500B56C0040BCC0E0120B8BD0F0D0E02001EA
:100B150004C4C0E0C4B201C0F0120814D0F0D5F08E
:100B2500EB02086412079E0901530A685808D24C63
:100B350008CE420A6C4F0A74440A744908E7430A0E
:100B45007A5509AB460A09450975470C405008D640
:100B55002D08DA2E08FD2B08DE2308FB200C292A98
:100B6500089648000008F5E56CB4FF03756C06129D
:100B750007F0FC1207F0FD1207F0FE1207F0FF78F0
:100B850062020430790AA2D5200314300509B91090
:100B9500020404B9080104A2D5200602500104206C
:100BA50002689202B56B005034C0E07F2030031913
:100BB5007F30A20272067205500F120BE2C202C20A
:100BC50006C205C2087F30800F300503E9C0E01278
:100BD500082B300503D0E0F9D0E0B56BCC30051714
:100BE5007F30B9100C12082B7F583004077F7880AE
:100BF50003B9080312082B3002057F2D02082B7F4D
:100C0500202008F87F2B2006F322920280CF7F0058
:100C1500B4070050052462F8E6FF22286E756C6C57
:100C25002900D2011207F03001F8C201786B30D5E6
:100C35000108F60208962D504349581207F024037F
:100C4500B405004001E4900C3B9312081C743A1261
:0A0C5500081CD203756B04020A6844
:100E91008F5D8E5C8D5B8C5AE4FFFEFDFCAB5DAA21
:100EA1005CA95BA85A12034C7026FFFEFDFCAB61E6
:100EB100AA60A95FA85E12034C60084006E4FFFE29
:100EC100FDFC2274FFF561F560F55FF55E020F63CD
:100ED100E4F562F563FFFEFDFCAB5DAA5CA95BA8CE
:100EE1005A12034C504BAF61AE60AD5FAC5E120362
:100EF100CA8E628F63AC62AD63EC1201C3C8ECC8E9
:100F0100C9EDC9CAEECACBEFCBAF61AE60AD5FAC84
:100F11005E120029E4FBFAF9F812034C70A5AF5DEB
:100F2100AE5CAD5BAC5A1203B98F5D8E5C8D5B8C90
:100F31005AAF5DAE5CAD5BAC5A120C93AB61AA606B
:100F4100A95FA85E120246120FA48F618E608D5FA9
:100F51008C5EE56330E00B1203B98F618E608D5FAB
:0B0F61008C5EAF61AE60AD5FAC5E2245
:1001FC00E9D2E7C933E833F892D5EDD2E7CD33EC49
:07020C0033FC5002B2D522C1
:10021300EC30E7100FBF000C0EBE00080DBD00044C
:100223000BEB6014A2D5EB13FCED92E7FD2274FFF8
:10023300FCFDFEFF22E480F8A2D574FF13FC7D8051
:03024300E480EF65
:10024600EC4D6011E8497017ED33EC3304600DE4B2
:10025600FCFFFEFD22E933E8330470F80202311296
:1002660001FC58046009E4CC248150062850090298
:10027600023B284003020238C0E0EB4A7044B980D2
:1002860006D0E0FB020227EF4E701CBD8008EBFF94
:10029600EAFEE9FD80EBE98DF0A4FEE5F002032F0E
:1002A600E9CDF9EAFEEBFFEF89F0A4FCE5F0CE8993
:1002B600F0A42EFFE435F0CD89F0A42DFEE435F050
:1002C6008067EF4E7005BD80D780C3EF8BF0A4AC7E
:1002D600F0EE8BF0A42CFCE435F0F8EF8AF0A42CB9
:1002E600E5F038FCE433CB8DF0A42CFCE5F03BF8CC
:1002F600EE8AF0A42CFCE5F038F8E433CF89F0A4BC
:100306002CFCE5F038CF3400CE89F0A42FFFE5F0C1
:100316003EFEE433C98DF0A42EFEE5F039CD8AF019
:10032600A42FFFE5F03EFEE43DFD33D0E0FB500791
:100336000BBB000F02023BEC2CFCEF33FFEE33FE4F
:06034600ED33FD0202137D
:10034C0074F8CC6480CCC86480C8F582046043C364
:10035C00EB9FF5F0EA9E42F0E99D42F0E89C45F0F7
:10036C0060305018E5825FFFE582F42B5582FB501C
:10037C00210ABA001D09B90019088016E5825BFB39
:10038C00E582F42F5582FF50090EBE00050DBD000D
:10039C00010CC3EB9FF5F0EA9E42F0E99D42F0E8B8
:0D03AC009C45F06007CC4820E701B3EC222F
:1003B900ED33EC33600A047003BD8004ECB2E7FC52
:0103C9002211
:1003CA00EDD2E7CD33EC3392D524814006E4FFFE2B
:1003DA00FDFC22FCE4CFCECDCC24E0501174FF808A
:1003EA00EDC3CC13CCCD13CDCE13CECF13CF047027
:0703FA00F030D5DE020760C0
:10040100F920E72824F950037907E4F42402FB18C2
:10041100DBFDE624FB5014E9600DE4F618E604F672
:0F042100B40A08E4F6D9F57401F60A22C2D5220E
:10043000ED33EC3392D5FA602AB4FF33EDC2E77B9B
:10044000FF60067A047955E4227A04795E20D504A7
:100450007A047959224E614E002B494E46002D49AF
:100460004E4600E47A08F608DAFC7B00740722E8BE
:10047000C0E0ECC0E0EDC0E0EEC0E0EFC0E0EA7547
:10048000F010A4CAABF075F04DA42BFBE435F0FCE2
:10049000EA2410FAEB34C5FBEC34D9FCEDC2E7FFDB
:1004A00075F056A4F42411C5F0F434C58FF0A42AD5
:1004B000E5F03BE43CF620E714120563D0E0FFD002
:1004C000E0FED0E0FDD0E0FC1201218014F4041223
:1004D0000563D0E0FFD0E0FED0E0FDD0E0FC1202EA
:1004E00046D0E0F8E6FAEDD2E7CD33EC332482FBD8
:1004F000E4C3CF33CFCE33CECD33CD33DBF37B0765
:1005000075F00A846004F6081B0AE5F0F6088FF01F
:10051000740AA4FFACF08EF0740AA42CFEACF05068
:10052000010C8DF0740AA42CFDE435F0F608DBDE36
:030530007407222B
:100F6C0033DA929E35B16011377FE5FE39218489E1
:100F7C003AAEC3FF3C1D955B3D6358473E75FDF093
:100F8C003F3172183F800000C2D502023B02023191
:100F9C00BD80FA50F3020238ED33EC330460F17B80
:100FAC003B7AAA79B8783F120246ED33EC3392D5EE
:100FBC00247B5011A2D570DB500BED4480240450DF
:100FCC0004A2D580CEEFFBEEFAEDF9ECF81203CAD1
:100FDC00EFF582F404FC1201C812002DC082900FB0
:100FEC006C74091205B2ED33CC33D0F092D525F0E8
:0A0FFC00A2D57001C313CC13FD222F
:100C5F003E9248DA3ECCCCCD3F2AAAAB40000000F2
:100C6F003F8000003F9837F03FB504F33FD744FC77
:100C7F003E3172173EB172173F0515913EDE5BD9BB
:100C8F00D2008002C200EDD2E7F8CD33EC3304700E
:100C9F000BBD800592D502023B02023140FBD314FB
:100CAF0060F2F5F07C3FEE7A00C39496C8948B40C7
:100CBF00230AC89469C8941A401A0AC89468C89439
:100CCF001F40110AC8945AC89425400805F07A00AD
:100CDF00CDC2E7CDC0F08C648D658E668F67EA2339
:100CEF0023C0E0246FF582E4340CF58312077E12E3
:100CFF00002DECC0E0EDC0E0EEC0E0EFC0E0120769
:100D0F006EA864A965AA66AB67120029D0E0FBD074
:100D1F00E0FAD0E0F9D0E0B2E7F81201218C648D4F
:100D2F00658E668F67900C5F74031205A3A864A984
:100D3F0065AA66AB67120246D0E0600F247BF5828E
:100D4F00E4340CF58312077E12002D8C648D658EB2
:100D5F00668F67D0E0C3947FFDE49400FC1201C35B
:100D6F007B187A727931783F120246A864A965AA76
:100D7F0066AB6712002D30000B7BD97A5B79DE787A
:050D8F003E12024622A5
:100533003F8000004120000042C80000447A0000D0
:10054300461C400047C35000497424004B18968052
:100553004CBEBC205A0E1BCA6753C21C749DC5AE49
:10056300FB60065407601C2323120591EB5438608B
:100573000912057D12058C120246ECF8EDF9EEFA2C
:10058300EFCB22EB12058C80F1543803241C900529
:1005930033FE93FC0EEE93FD0EEE930ECE93FF22ED
:1005A300C0E0EFFBEEFAEDF9ECF8120246D0E0F50D
:1005B300F0EFFBEEFAEDF9ECF812076EA3A3A3A399
:1005C300E8C0E0E9C0E0EAC0E0EBC0E0C0F012023E
:1005D3004612077EA3A3A3A312002DD0F0D0E0FB05
:0D05E300D0E0FAD0E0F9D0E0F8D5F0D42255
:03000000021006E5
:0C100600787FE4F6D8FD75816E02104D75
:1005F000E709F608DFFA8046E709F208DFFA803EED
:1006000088828C83E709F0A3DFFA8032E309F608D9
:10061000DFFA8078E309F208DFFA807088828C8341
:10062000E309F0A3DFFA806489828A83E0A3F608F5
:10063000DFFA805889828A83E0A3F208DFFA804CCF
:1006400080D280FA80C680D4806980F280338010A6
:1006500080A680EA809A80A880DA80E280CA80330F
:1006600089828A83ECFAE493A3C8C582C8CCC58387
:10067000CCF0A3C8C582C8CCC583CCDFE9DEE78057
:100680000D89828A83E493A3F608DFF9ECFAA9F0D6
:10069000EDFB2289828A83ECFAE0A3C8C582C8CC2C
:1006A000C583CCF0A3C8C582C8CCC583CCDFEADE45
:1006B000E880DB89828A83E493A3F208DFF980CCA7
:1006C00088F0EF60010E4E60C388F0ED2402B404A0
:1006D0000050B9F582EB2402B4040050AF23234547
:0606E00082239006407326
:1006E600BB010689828A83E0225002E722BBFE0212
:0906F600E32289828A83E4932245
:1006FF00BB010CE58229F582E5833AF583E02250B0
:10070F0006E92582F8E622BBFE06E92582F8E222F9
:0D071F00E58229F582E5833AF583E4932213
:10072C00BB010689828A83F0225002F722BBFE01AC
:02073C00F322A6
:10073E00F8BB010DE58229F582E5833AF583E8F0F1
:10074E00225006E92582C8F622BBFE05E92582C89D
:02075E00F22285
:0E076000C3E49FFFE49EFEE49DFDE49CFC22AA
:10076E00E493FC740193FD740293FE740393FF22D1
:10077E00E493F8740193F9740293FA740393FB22D1
:10078E00FAE6FB0808E6F925F0F618E6CA3AF6226C
:10079E00D083D082F8E4937012740193700DA3A3EA
:1007AE0093F8740193F5828883E4737402936860FE
:0607BE00EFA3A3A380DFFE
:10120E00EFB40A07740D121219740A309811A899C6
:10121E00B8130CC2983098FDA899C298B811F63040
:07122E0099FDC299F5992218
:10125900E4FFFE1206E6600C0FEF70010E09E9705B
:05126900F20A80EF22F3
:1007C400EF4E6012EF60010EEDBB010B89828A834C
:1007D400F0A3DFFCDEFA2289F05007F709DFFCA959
:0C07E400F022BBFEFCF309DFFCA9F022B0
:10101200020D94E493A3F8E493A34003F68001F253
:1010220008DFF48029E493A3F85407240CC8C333DF
:10103200C4540F4420C8834004F456800146F6DFAE
:10104200E4800B010204081020408090127FE47EAD
:10105200019360BCA3FF543F30E509541FFEE493A3
:10106200A360010ECF54C025E060A840B8E493A36A
:10107200FAE493A3F8E493A3C8C582C8CAC583CA95
:10108200F0A3C8C582C8CAC583CADFE9DEE780BE4D
:011285000068
:00000001FF
