:1001760010083F065B4F666D7D077F6F777C395EA3
:0201860079718D
:10011A00E4F518F519D2A77580FAC2A7D2A605196F
:10012A00E51970020518142408F8E6F580C2A6E558
:10013A0019641045187004C2A38002D2A3AE18AF86
:10014A00197C007D1012008F8C188D1912015B80AA
:01015A00CBD9
:10015B007FFA7E007DE67C00ED1D70011CED4C707E
:0A016B00F7EF1F70011EEF4E70EA5F
:010175002267
:03000000020003F8
:0C000300787FE4F6D8FD75811902004AF0
:10008F00C2D5EC30E709B2D5E4C39DFDE49CFCEE8C
:10009F0030E715B2D5E4C39FFFE49EFE1200C5C33F
:1000AF00E49DFDE49CFC80031200C530D507C3E43A
:0600BF009FFFE49EFE22FB
:10000F0002011AE493A3F8E493A34003F68001F2EC
:10001F0008DFF48029E493A3F85407240CC8C333F2
:10002F00C4540F4420C8834004F456800146F6DFC1
:10003F00E4800B0102040810204080900176E47EDA
:10004F00019360BCA3FF543F30E509541FFEE493B6
:10005F00A360010ECF54C025E060A840B8E493A37D
:10006F00FAE493A3F8E493A3C8C582C8CAC583CAA8
:10007F00F0A3C8C582C8CAC583CADFE9DEE780BE60
:010188000076
:1000C500BC000BBE0029EF8DF084FFADF022E4CC1F
:1000D500F875F008EF2FFFEE33FEEC33FCEE9DECE8
:1000E500984005FCEE9DFE0FD5F0E9E4CEFD22ED2E
:1000F500F8F5F0EE8420D21CFEADF075F008EF2F78
:10010500FFED33FD4007985006D5F0F222C398FD68
:050115000FD5F0EA2205
:00000001FF
