:06000300065B4F666D7DF7
:10009900758901758CFC758A17D2AFD2A9D28CE407
:1000A900F508F509D2A7750AFE7580FEC2A7D2A682
:1000B9007580FFC2A6E50C6401450B70F8F50BF5D8
:1000C9000CD2A7AF0AA809EF08800123D8FDF58053
:1000D900C2A77580FFD2A6C374059509FFE49508E8
:1000E900FE74032FF58274003EF583E493F580C214
:1000F900A60509E50970020508AE08FF7C007D0622
:0C01090012000E8C088D0912011580A94F
:03000B00020130BF
:10013000C0E0758CFC758A17050CE50C7002050B88
:03014000D0E032DA
:100115007F017E007D6E7C00ED1D70011CED4C7035
:0A012500F7EF1F70011EEF4E70EAA5
:01012F0022AD
:03000000020143B7
:0C014300787FE4F6D8FD75810E0200996B
:10000E00C2D5EC30E709B2D5E4C39DFDE49CFCEE0D
:10001E0030E715B2D5E4C39FFFE49EFE120044C341
:10002E00E49DFDE49CFC800312004430D507C3E43C
:06003E009FFFE49EFE227C
:10004400BC000BBE0029EF8DF084FFADF022E4CCA0
:10005400F875F008EF2FFFEE33FEEC33FCEE9DEC69
:10006400984005FCEE9DFE0FD5F0E9E4CEFD22EDAF
:10007400F8F5F0EE8420D21CFEADF075F008EF2FF9
:10008400FFED33FD4007985006D5F0F222C398FDEA
:050094000FD5F0EA2287
:00000001FF
