:0D037F0068656C6C6F20776F726C642100F4
:06038C00010800012C0035
:10035B00758920758DFD758BFDD28ED29CC29FD277
:10036B009ED2AFD2AC7E007F207D007B007A0079DD
:04037B002D02016BE3
:080018008F993099FDC2992275
:06028D008B4D8A4E894FE3
:10029300C2AC1200038E508F51E4FDFCC3ED9551A7
:1002A300E5506480F8EC6480985018AB4DAA4EA9D1
:1002B3004F8D828C8312011CFF1200180DBD0001AB
:1002C3000C80D97F0A1200187E007F207D00AB4D81
:0902D300AA4EA94F12016BD2AC36
:0102DC0022FF
:0300230002032CA9
:10032C00C0E0C0D075D000C00030981CC298859930
:10033C002BE52B640A600B742D252CF8A62B052CB1
:0F034C008006752C00750801D000D0D0D0E032AB
:03002000AF082204
:10023C008B4D8A4E894FE4F508FB7A00792D12001C
:10024C00038F097B007A00792D120003A84FAC4E66
:10025C00AD4D7B007A00792D1200F67B007A007987
:10026C002D120003AB4DAA4EA94F8F828E83E41240
:10027C0001497E007F207D007B007A00792D0201F0
:01028C006B06
:03039300AF09228D
:1002DD0012035B7E007F207D007B007A00790B127C
:1002ED00016B7BFF7A03797F12028D120020EFD311
:1002FD00940040F77B007A00790B12023C7B007A68
:10030D0000790B12028D1203938F0A7430250AF5B2
:0F031D000A7B007A00790A12028DE4F59080CCF9
:030000000201B04A
:0C01B000787FE4F6D8FD7581510201F75C
:10002600E709F608DFFA8046E709F208DFFA803EBC
:1000360088828C83E709F0A3DFFA8032E309F608A9
:10004600DFFA8078E309F208DFFA807088828C8311
:10005600E309F0A3DFFA806489828A83E0A3F608C5
:10006600DFFA805889828A83E0A3F208DFFA804C9F
:1000760080D280FA80C680D4806980F28033801076
:1000860080A680EA809A80A880DA80E280CA8033DF
:1000960089828A83ECFAE493A3C8C582C8CCC58357
:1000A600CCF0A3C8C582C8CCC583CCDFE9DEE78027
:1000B6000D89828A83E493A3F608DFF9ECFAA9F0A6
:1000C600EDFB2289828A83ECFAE0A3C8C582C8CCFC
:1000D600C583CCF0A3C8C582C8CCC583CCDFEADE15
:1000E600E880DB89828A83E493A3F208DFF980CC77
:1000F60088F0EF60010E4E60C388F0ED2402B40470
:100106000050B9F582EB2402B4040050AF23234516
:06011600822390007673C5
:10011C00BB010CE58229F582E5833AF583E0225098
:10012C0006E92582F8E622BBFE06E92582F8E222E2
:0D013C00E58229F582E5833AF583E49322FC
:10014900F8BB010DE58229F582E5833AF583E8F0EC
:10015900225006E92582C8F622BBFE05E92582C898
:02016900F22280
:10000300E4FFFE120197600C0FEF70010E09E97017
:05001300F20A80EF225B
:10016B00EF4E6012EF60010EEDBB010B89828A83AB
:10017B00F0A3DFFCDEFA2289F05007F709DFFCA9B8
:0C018B00F022BBFEFCF309DFFCA9F0220F
:1001BC000202DDE493A3F8E493A34003F68001F27A
:1001CC0008DFF48029E493A3F85407240CC8C33344
:1001DC00C4540F4420C8834004F456800146F6DF13
:1001EC00E4800B010204081020408090038CE47E14
:1001FC00019360BCA3FF543F30E509541FFEE49308
:10020C00A360010ECF54C025E060A840B8E493A3CE
:10021C00FAE493A3F8E493A3C8C582C8CAC583CAF9
:10022C00F0A3C8C582C8CAC583CADFE9DEE780BEB1
:01039200006A
:10019700BB010689828A83E0225002E722BBFE0266
:0901A700E32289828A83E4932299
:00000001FF
