:1000C500FFF9FAFAFBFBFCFCFFFCFDFDFDFDFEFE66
:1000D500FFFEFEFEFEFEFF00FF5B15B904900C79E6
:1000E500FFAC095C82C8053CFF5584ADC0E3020046
:1000F50006010305010103010205010201020206D1
:1001050001010501010601040301010501010601C3
:1001150001050102030102010101060001050101BA
:1001250003010102010402010303010105010205A6
:100135000101060101030102020102010104050199
:100145000403010102010101010106000101010190
:040155000500080099
:04000300020B0000EC
:0E020A00758911758CD8758AEFD2AFD2A922F2
:03000B000201E50A
:1001E500C0E0050CE50C7002050B758CD8758AEF1F
:0301F500D0E03225
:1001F800AD071FED600BE4FEEEC3947D50F20E8058
:01020800F7FE
:0102090022D2
:0E0218008F8D8D8BD28E308FFDC28EC28F22C5
:10000E00E4FBFA12020AE4FAFBEB9000F59370039C
:10001E000200BD0BEBAE0270010A1424F5F58274DA
:10002E00003EF583E493750800F5090BEBAE027004
:10003E00010A1424F5F58274003EF583E493FFA9BA
:10004E000975F008A424C5F582E43400F583E58231
:10005E0029F582E43583F583E493F50AEF75F0080C
:10006E00A424DDF582E43400F583E58229F582E4EB
:10007E003583F583E493F90BEBAE0270010A142479
:10008E00F5F58274003EF583E49375F03CA4FED240
:10009E008CEE650C7002E50B600BB2A3AD01AF0ADE
:1000AE0012021880ECE4F50BF50CC28C0200177FDF
:0700BE00641201F8020014B6
:03000000020159A1
:0C015900787FE4F6D8FD75810C0201A04F
:1001650002000EE493A3F8E493A34003F68001F2A2
:1001750008DFF48029E493A3F85407240CC8C3339B
:10018500C4540F4420C8834004F456800146F6DF6A
:10019500E4800B0102040810204080900003E47EF7
:1001A500019360BCA3FF543F30E509541FFEE4935F
:1001B500A360010ECF54C025E060A840B8E493A326
:1001C500FAE493A3F8E493A3C8C582C8CAC583CA51
:1001D500F0A3C8C582C8CAC583CADFE9DEE780BE09
:0100070000F8
:00000001FF
