:1001C300FA6CFA6CFC5EFCC4FD47FD47FCC4FC5EA4
:1001D300FC5EFCC4FC5EFA6CFA6CFC5EFCC4FD477E
:1001E300FD47FCC4FC5EFC5EFCC4FC5EFC5EFC5E86
:1001F300FC5EFA6CFC5EFCC4FCC4FC5EFA6CFADCCC
:10020300FA6CFC5EFA6CFADCFA8CFA8CFADCFA8C87
:10021300FA6CFADCFA8CFA6CFADCFA6CFC5EFCC45D
:10022300FD47FC5EFADCFA6CFC5EFADCFA6CFA8CD5
:10023300F987F8BEF987FA8CFADCFA6CFA8CFADCE7
:10024300FA8CF987F8BEFFFF3F8000003F000000F3
:100253003F0000003F0000003F0000003F0000009F
:100263003F0000003F8000003F0000003F0000000F
:10027300400000003F8000003F0000003F000000FE
:100283003F0000003F0000003F0000003F0000006F
:100293003F8000003F0000003F00000040000000DE
:1002A3003F8000003F8000003F8000003F000000CF
:1002B3003F0000003F8000003F800000400000003E
:1002C3003F8000003F0000003F0000003F8000002F
:1002D3003F0000003F0000003F8000003F0000009F
:1002E3003F000000400000003F0000003F0000000E
:1002F3003F0000003F0000003FC000003F0000003F
:100303003F8000003F0000003F000000400000006D
:100313003F8000003F0000003F0000003F0000005E
:100323003F0000003F0000003F00000040000000CD
:100333003F8000003F8000003FC000003F000000FE
:100343003F0000003F0000003F0000003F000000AE
:08035300404000003F80000063
:0A000E0002080000011100010A00C1
:10049400758911758CD8758AEFD2AFD2A9D2AB22E7
:03000B0002046F7D
:10046F00C0E00509E50970020508758CD8758AEF9B
:03047F00D0E03298
:03001B00020003DD
:04000300750A013247
:10048200AD071FED600BE4FEEEC3947D50F20E80CB
:01049200F772
:010493002246
:1004A4008F8D8D8BD28EE50A60FCE4F50AC28E2214
:1003E700120494E4F511E51125E024C3F582E43401
:1003F70001F583740193F47003E493F46062E511EB
:1004070025E024C3F582E43401F583E493FC740109
:1004170093FDECF50DEDF51075F004E511A4244BF3
:10042700F582E5F03402F5831201B3E4FBFA792093
:10043700784212001E1201248E0B8F0C0511D28CEC
:10044700E509650C7004E508650B600BB2A3AD10F8
:10045700AF0D1204A480E9E4F508F509C28C808683
:080467007F641204820203EA23
:10001E00EC4D6011E8497017ED33EC3304600DE4DC
:10002E00FCFFFEFD22E933E8330470F80201901262
:10003E00015B58046009E4CC248150062850090263
:10004E00019A284003020197C0E0EB4A7044B98040
:10005E0006D0E0FB020186EF4E701CBD8008EBFF60
:10006E00EAFEE9FD80EBE98DF0A4FEE5F002010762
:10007E00E9CDF9EAFEEBFFEF89F0A4FCE5F0CE89BD
:10008E00F0A42EFFE435F0CD89F0A42DFEE435F07A
:10009E008067EF4E7005BD80D780C3EF8BF0A4ACA8
:1000AE00F0EE8BF0A42CFCE435F0F8EF8AF0A42CE3
:1000BE00E5F038FCE433CB8DF0A42CFCE5F03BF8F6
:1000CE00EE8AF0A42CFCE5F038F8E433CF89F0A4E6
:1000DE002CFCE5F038CF3400CE89F0A42FFFE5F0EC
:1000EE003EFEE433C98DF0A42EFEE5F039CD8AF044
:1000FE00A42FFFE5F03EFEE43DFD33D0E0FB5007BC
:10010E000BBB000F02019AEC2CFCEF33FFEE33FE1B
:06011E00ED33FD02017249
:10012400EDD2E7CD33EC3392D524814006E4FFFED3
:10013400FDFC22FCE4CFCECDCC24E0501174FF8032
:10014400EDC3CC13CCCD13CDCE13CECF13CF0470CF
:07015400F030D5DE0201A529
:10015B00E9D2E7C933E833F892D5EDD2E7CD33ECEA
:07016B0033FC5002B2D52263
:10017200EC30E7100FBF000C0EBE00080DBD0004EE
:100182000BEB6014A2D5EB13FCED92E7FD2274FF9A
:10019200FCFDFEFF22E480F8A2D574FF13FC7D80F3
:0301A200E480EF07
:0300000002035B9D
:0C035B00787FE4F6D8FD7581110203A242
:0E01A500C3E49FFFE49EFEE49DFDE49CFC226B
:1001B300E493FC740193FD740293FE740393FF2292
:100367000203E7E493A3F8E493A34003F68001F2C2
:1003770008DFF48029E493A3F85407240CC8C33397
:10038700C4540F4420C8834004F456800146F6DF66
:10039700E4800B010204081020408090000EE47EE8
:1003A700019360BCA3FF543F30E509541FFEE4935B
:1003B700A360010ECF54C025E060A840B8E493A322
:1003C700FAE493A3F8E493A3C8C582C8CAC583CA4D
:1003D700F0A3C8C582C8CAC583CADFE9DEE780BE05
:0100180000E7
:00000001FF
